{
  "_format": "hh-sol-artifact-1",
  "contractName": "FortuneTiger",
  "sourceName": "contracts/FortuneTiger.sol",
  "abi": [
    {
      "inputs": [
        {
          "internalType": "address",
          "name": "_ecosystemManagerAddress",
          "type": "address"
        },
        {
          "internalType": "address",
          "name": "_initialOwner",
          "type": "address"
        }
      ],
      "stateMutability": "nonpayable",
      "type": "constructor"
    },
    {
      "inputs": [
        {
          "internalType": "address",
          "name": "owner",
          "type": "address"
        }
      ],
      "name": "OwnableInvalidOwner",
      "type": "error"
    },
    {
      "inputs": [
        {
          "internalType": "address",
          "name": "account",
          "type": "address"
        }
      ],
      "name": "OwnableUnauthorizedAccount",
      "type": "error"
    },
    {
      "inputs": [],
      "name": "ReentrancyGuardReentrantCall",
      "type": "error"
    },
    {
      "anonymous": false,
      "inputs": [
        {
          "indexed": true,
          "internalType": "uint256",
          "name": "actionId",
          "type": "uint256"
        },
        {
          "indexed": true,
          "internalType": "address",
          "name": "creator",
          "type": "address"
        },
        {
          "indexed": false,
          "internalType": "enum FortuneTiger.ActionType",
          "name": "actionType",
          "type": "uint8"
        },
        {
          "indexed": false,
          "internalType": "uint256",
          "name": "endTime",
          "type": "uint256"
        },
        {
          "indexed": false,
          "internalType": "string",
          "name": "description",
          "type": "string"
        }
      ],
      "name": "ActionCreated",
      "type": "event"
    },
    {
      "anonymous": false,
      "inputs": [
        {
          "indexed": true,
          "internalType": "uint256",
          "name": "actionId",
          "type": "uint256"
        },
        {
          "indexed": true,
          "internalType": "address",
          "name": "finalRecipient",
          "type": "address"
        },
        {
          "indexed": false,
          "internalType": "uint256",
          "name": "prizeAmount",
          "type": "uint256"
        }
      ],
      "name": "ActionFinalized",
      "type": "event"
    },
    {
      "anonymous": false,
      "inputs": [
        {
          "indexed": true,
          "internalType": "address",
          "name": "creator",
          "type": "address"
        },
        {
          "indexed": false,
          "internalType": "uint256",
          "name": "feeAmount",
          "type": "uint256"
        }
      ],
      "name": "CreationFeePaid",
      "type": "event"
    },
    {
      "anonymous": false,
      "inputs": [
        {
          "indexed": true,
          "internalType": "address",
          "name": "previousOwner",
          "type": "address"
        },
        {
          "indexed": true,
          "internalType": "address",
          "name": "newOwner",
          "type": "address"
        }
      ],
      "name": "OwnershipTransferred",
      "type": "event"
    },
    {
      "anonymous": false,
      "inputs": [
        {
          "indexed": true,
          "internalType": "uint256",
          "name": "actionId",
          "type": "uint256"
        },
        {
          "indexed": true,
          "internalType": "address",
          "name": "participant",
          "type": "address"
        },
        {
          "indexed": false,
          "internalType": "uint256",
          "name": "bkcAmount",
          "type": "uint256"
        },
        {
          "indexed": false,
          "internalType": "uint256",
          "name": "couponsIssued",
          "type": "uint256"
        }
      ],
      "name": "Participation",
      "type": "event"
    },
    {
      "anonymous": false,
      "inputs": [
        {
          "indexed": true,
          "internalType": "uint256",
          "name": "actionId",
          "type": "uint256"
        },
        {
          "indexed": true,
          "internalType": "address",
          "name": "creator",
          "type": "address"
        },
        {
          "indexed": false,
          "internalType": "uint256",
          "name": "stakeAmount",
          "type": "uint256"
        }
      ],
      "name": "StakeReturned",
      "type": "event"
    },
    {
      "inputs": [],
      "name": "COUPONS_PER_BKC",
      "outputs": [
        {
          "internalType": "uint256",
          "name": "",
          "type": "uint256"
        }
      ],
      "stateMutability": "view",
      "type": "function"
    },
    {
      "inputs": [],
      "name": "DRAW_MAX_OFFSET_BLOCKS",
      "outputs": [
        {
          "internalType": "uint256",
          "name": "",
          "type": "uint256"
        }
      ],
      "stateMutability": "view",
      "type": "function"
    },
    {
      "inputs": [],
      "name": "actionCounter",
      "outputs": [
        {
          "internalType": "uint256",
          "name": "",
          "type": "uint256"
        }
      ],
      "stateMutability": "view",
      "type": "function"
    },
    {
      "inputs": [
        {
          "internalType": "uint256",
          "name": "",
          "type": "uint256"
        }
      ],
      "name": "actions",
      "outputs": [
        {
          "internalType": "uint256",
          "name": "id",
          "type": "uint256"
        },
        {
          "internalType": "address",
          "name": "creator",
          "type": "address"
        },
        {
          "internalType": "string",
          "name": "description",
          "type": "string"
        },
        {
          "internalType": "enum FortuneTiger.ActionType",
          "name": "actionType",
          "type": "uint8"
        },
        {
          "internalType": "enum FortuneTiger.Status",
          "name": "status",
          "type": "uint8"
        },
        {
          "internalType": "uint256",
          "name": "endTime",
          "type": "uint256"
        },
        {
          "internalType": "uint256",
          "name": "totalPot",
          "type": "uint256"
        },
        {
          "internalType": "uint256",
          "name": "creatorStake",
          "type": "uint256"
        },
        {
          "internalType": "bool",
          "name": "isStakeReturned",
          "type": "bool"
        },
        {
          "internalType": "address",
          "name": "beneficiary",
          "type": "address"
        },
        {
          "internalType": "uint256",
          "name": "totalCoupons",
          "type": "uint256"
        },
        {
          "internalType": "address",
          "name": "winner",
          "type": "address"
        },
        {
          "internalType": "uint256",
          "name": "closingBlock",
          "type": "uint256"
        },
        {
          "internalType": "uint256",
          "name": "winningCoupon",
          "type": "uint256"
        }
      ],
      "stateMutability": "view",
      "type": "function"
    },
    {
      "inputs": [],
      "name": "bkcToken",
      "outputs": [
        {
          "internalType": "contract BKCToken",
          "name": "",
          "type": "address"
        }
      ],
      "stateMutability": "view",
      "type": "function"
    },
    {
      "inputs": [
        {
          "internalType": "uint256",
          "name": "",
          "type": "uint256"
        },
        {
          "internalType": "uint256",
          "name": "",
          "type": "uint256"
        }
      ],
      "name": "couponOwners",
      "outputs": [
        {
          "internalType": "address",
          "name": "",
          "type": "address"
        }
      ],
      "stateMutability": "view",
      "type": "function"
    },
    {
      "inputs": [
        {
          "internalType": "uint256",
          "name": "",
          "type": "uint256"
        },
        {
          "internalType": "uint256",
          "name": "",
          "type": "uint256"
        }
      ],
      "name": "couponRanges",
      "outputs": [
        {
          "internalType": "uint256",
          "name": "",
          "type": "uint256"
        }
      ],
      "stateMutability": "view",
      "type": "function"
    },
    {
      "inputs": [
        {
          "internalType": "uint256",
          "name": "_duration",
          "type": "uint256"
        },
        {
          "internalType": "enum FortuneTiger.ActionType",
          "name": "_actionType",
          "type": "uint8"
        },
        {
          "internalType": "uint256",
          "name": "_charityStake",
          "type": "uint256"
        },
        {
          "internalType": "string",
          "name": "_description",
          "type": "string"
        },
        {
          "internalType": "uint256",
          "name": "_boosterTokenId",
          "type": "uint256"
        }
      ],
      "name": "createAction",
      "outputs": [],
      "stateMutability": "nonpayable",
      "type": "function"
    },
    {
      "inputs": [],
      "name": "ecosystemManager",
      "outputs": [
        {
          "internalType": "contract IEcosystemManager",
          "name": "",
          "type": "address"
        }
      ],
      "stateMutability": "view",
      "type": "function"
    },
    {
      "inputs": [
        {
          "internalType": "uint256",
          "name": "_actionId",
          "type": "uint256"
        }
      ],
      "name": "finalizeAction",
      "outputs": [],
      "stateMutability": "nonpayable",
      "type": "function"
    },
    {
      "inputs": [
        {
          "internalType": "uint256",
          "name": "_actionId",
          "type": "uint256"
        }
      ],
      "name": "getAction",
      "outputs": [
        {
          "components": [
            {
              "internalType": "uint256",
              "name": "id",
              "type": "uint256"
            },
            {
              "internalType": "address",
              "name": "creator",
              "type": "address"
            },
            {
              "internalType": "string",
              "name": "description",
              "type": "string"
            },
            {
              "internalType": "enum FortuneTiger.ActionType",
              "name": "actionType",
              "type": "uint8"
            },
            {
              "internalType": "enum FortuneTiger.Status",
              "name": "status",
              "type": "uint8"
            },
            {
              "internalType": "uint256",
              "name": "endTime",
              "type": "uint256"
            },
            {
              "internalType": "uint256",
              "name": "totalPot",
              "type": "uint256"
            },
            {
              "internalType": "uint256",
              "name": "creatorStake",
              "type": "uint256"
            },
            {
              "internalType": "bool",
              "name": "isStakeReturned",
              "type": "bool"
            },
            {
              "internalType": "address",
              "name": "beneficiary",
              "type": "address"
            },
            {
              "internalType": "uint256",
              "name": "totalCoupons",
              "type": "uint256"
            },
            {
              "internalType": "address",
              "name": "winner",
              "type": "address"
            },
            {
              "internalType": "uint256",
              "name": "closingBlock",
              "type": "uint256"
            },
            {
              "internalType": "uint256",
              "name": "winningCoupon",
              "type": "uint256"
            }
          ],
          "internalType": "struct FortuneTiger.Action",
          "name": "",
          "type": "tuple"
        }
      ],
      "stateMutability": "view",
      "type": "function"
    },
    {
      "inputs": [],
      "name": "getMinCreatorStake",
      "outputs": [
        {
          "internalType": "uint256",
          "name": "",
          "type": "uint256"
        }
      ],
      "stateMutability": "view",
      "type": "function"
    },
    {
      "inputs": [
        {
          "internalType": "uint256",
          "name": "_actionId",
          "type": "uint256"
        }
      ],
      "name": "getParticipants",
      "outputs": [
        {
          "internalType": "address[]",
          "name": "",
          "type": "address[]"
        },
        {
          "internalType": "uint256[]",
          "name": "",
          "type": "uint256[]"
        }
      ],
      "stateMutability": "view",
      "type": "function"
    },
    {
      "inputs": [],
      "name": "owner",
      "outputs": [
        {
          "internalType": "address",
          "name": "",
          "type": "address"
        }
      ],
      "stateMutability": "view",
      "type": "function"
    },
    {
      "inputs": [
        {
          "internalType": "uint256",
          "name": "_actionId",
          "type": "uint256"
        },
        {
          "internalType": "uint256",
          "name": "_bkcAmount",
          "type": "uint256"
        },
        {
          "internalType": "uint256",
          "name": "_boosterTokenId",
          "type": "uint256"
        }
      ],
      "name": "participate",
      "outputs": [],
      "stateMutability": "nonpayable",
      "type": "function"
    },
    {
      "inputs": [],
      "name": "renounceOwnership",
      "outputs": [],
      "stateMutability": "nonpayable",
      "type": "function"
    },
    {
      "inputs": [
        {
          "internalType": "address",
          "name": "newOwner",
          "type": "address"
        }
      ],
      "name": "transferOwnership",
      "outputs": [],
      "stateMutability": "nonpayable",
      "type": "function"
    }
  ],
  "bytecode": "0x60c080604052346101f157604081612f3f803803809161001f8285610262565b8339810103126101f1576100328161029b565b906001600160a01b03906100489060200161029b565b1690811561024c57600080546001600160a01b031981168417825560405193916001600160a01b03909116907f8be0079c531659141344cd1fd0a4f28419497f9722a3daafe3b4186f6b6457e09080a3600180556001600160a01b031690811561020a5760808290526040516377e9ba6560e11b8152602081600481865afa9081156101fe576000916101bf575b506001600160a01b0316801561017a5760a052604051612c8f90816102b0823960805181818161041f0152818161091401528181610c9801528181610de0015281816114700152818161204f0152818161237b0152612998015260a0518181816105210152818161062801528181610e5c015281816113680152818161154f01528181611aab01528181611daf015281816121340152818161222101526125ad0152f35b60405162461bcd60e51b815260206004820152601f60248201527f46543a20546f6b656e206e6f7420636f6e6669677572656420696e20487562006044820152606490fd5b90506020813d6020116101f6575b816101da60209383610262565b810103126101f1576101eb9061029b565b816100d6565b600080fd5b3d91506101cd565b6040513d6000823e3d90fd5b62461bcd60e51b815260206004820152601660248201527f46543a204875622063616e6e6f74206265207a65726f000000000000000000006044820152606490fd5b631e4fbdf760e01b600052600060045260246000fd5b601f909101601f19168101906001600160401b0382119082101761028557604052565b634e487b7160e01b600052604160045260246000fd5b51906001600160a01b03821682036101f15756fe6080604052600436101561001257600080fd5b60003560e01c8063089381bf146113ba57806321fd3fdc146113975780632402ff9714611352578063694acc2d14611308578063715018a6146112af57806383240f831461119e578063899a27c814610d305780638da5cb5b14610d07578063a473104314610cc7578063af6725b914610c82578063b6e7687314610a41578063b959d899146102f4578063c1e3bd3e146101c0578063d3464206146101a4578063e289e7c214610187578063f2fde38b146100fa5763fdbd98b0146100d757600080fd5b346100f55760003660031901126100f5576020600554604051908152f35b600080fd5b346100f55760203660031901126100f5576004356001600160a01b038116908190036100f5576101286122ed565b801561017157600080546001600160a01b03198116831782556001600160a01b0316907f8be0079c531659141344cd1fd0a4f28419497f9722a3daafe3b4186f6b6457e09080a3005b631e4fbdf760e01b600052600060045260246000fd5b346100f55760003660031901126100f55760206040516103e88152f35b346100f55760003660031901126100f557602060405160648152f35b346100f55760203660031901126100f55760043580600052600260205260ff600360406000200154166101f281611d55565b6102af57806000526003602052604060002090600052600460205261022461021e604060002092611e53565b91611ea7565b906040519182916040830160408452815180915260206060850192019060005b81811061028d5750505082810360208401526020808351928381520192019060005b818110610274575050500390f35b8251845285945060209384019390920191600101610266565b82516001600160a01b0316845286955060209384019390920191600101610244565b60405162461bcd60e51b815260206004820152601960248201527f46543a204e6f7420612073706f7274696e6720616374696f6e000000000000006044820152606490fd5b346100f55760203660031901126100f557600435610310611ef2565b8060005260026020526040600020906003820180549260ff8460081c1661033681611d55565b6109eb57600481015442106109a65760058101549360ff1661035781611d55565b6108bf57600881015491821561086b5743600a830155600019430143811161085557409283158061084a575b610816575b83156107c55760009306600181018091116107b157806103ad91600b850155856127ad565b6009830180546001600160a01b0319166001600160a01b039092169182179055801561076c57604051631da3ddcd60e31b8152602060048201819052601860248301527f414354494f4e5f53504f52545f57494e4e45525f4249505300000000000000006044830152919491816064817f00000000000000000000000000000000000000000000000000000000000000006001600160a01b03165afa918215610760578092610724575b505061047461271061046c6104889389611e33565b048097611e46565b60018401546001600160a01b03169061297e565b805461ff00191661010017905560078101805460ff81161580610717575b6105df575b505050826104f0575b6040519283526001600160a01b0316917fd132b85665e1eeb8a7c94da56f88102db8b3a377b16f07afba1e7e6597653c1290602090a360018055005b60405163a9059cbb60e01b81526001600160a01b0382166004820152602481018490526020818060448101038160007f00000000000000000000000000000000000000000000000000000000000000006001600160a01b03165af19081156105d3576000916105a4575b506104b45760405162461bcd60e51b815260206004820152601c60248201527f46543a204661696c656420746f207472616e73666572207072697a65000000006044820152606490fd5b6105c6915060203d6020116105cc575b6105be8183611c4e565b810190611d75565b8461055a565b503d6105b4565b6040513d6000823e3d90fd5b60ff191660019081179091558101805460068301805460405163a9059cbb60e01b81526001600160a01b03939093166004840152602483015292906020818060448101038160007f00000000000000000000000000000000000000000000000000000000000000006001600160a01b03165af19081156105d3576000916106f8575b50156106a85760207f0d736493ece6b7d52e34dd028d3d9d0aa75de37339f3da6b3514e70e231ed2a591549260018060a01b039054169354604051908152a38380806104ab565b60405162461bcd60e51b815260206004820152602260248201527f46543a204661696c656420746f2072657475726e2063726561746f72207374616044820152616b6560f01b6064820152608490fd5b610711915060203d6020116105cc576105be8183611c4e565b87610661565b50600683015415156104a6565b9091506020823d602011610758575b8161074060209383611c4e565b81010312610755575051610474612710610457565b80fd5b3d9150610733565b604051903d90823e3d90fd5b60405162461bcd60e51b815260206004820152601960248201527f46543a20436f756c64206e6f742066696e642077696e6e6572000000000000006044820152606490fd5b634e487b7160e01b84526011600452602484fd5b60405162461bcd60e51b815260206004820152602360248201527f46543a20436f756c64206e6f742064657465726d696e652072616e646f6d207360448201526219595960ea1b6064820152608490fd5b925060405160208101904282523360601b604082015285605482015260548152610841607482611c4e565b51902092610388565b506101004311610383565b634e487b7160e01b600052601160045260246000fd5b60405162461bcd60e51b815260206004820152602660248201527f46543a204e6f207061727469636970616e747320696e2073706f7274696e672060448201526530b1ba34b7b760d11b6064820152608490fd5b60018060a01b03600782015460081c1691604051631da3ddcd60e31b8152602060048201526011602482015270414354494f4e5f43415553455f4249505360781b604482015260208160648160018060a01b037f0000000000000000000000000000000000000000000000000000000000000000165afa9081156105d357600091610972575b5061095961271061046c61096d9389611e33565b60018401546001600160a01b031690612362565b610488565b90506020813d60201161099e575b8161098d60209383611c4e565b810103126100f55751610959610945565b3d9150610980565b60405162461bcd60e51b815260206004820152601c60248201527f46543a20416374696f6e20686173206e6f7420656e64656420796574000000006044820152606490fd5b60405162461bcd60e51b815260206004820152602860248201527f46543a20416374696f6e206e6f74206f70656e206f7220616c726561647920666044820152671a5b985b1a5e995960c21b6064820152608490fd5b346100f55760203660031901126100f557604051610a5e81611c31565b60008152602081016000905260408101606090526060810160009052608081016000905260a081016000905260c081016000905260e08101600090526101008101600090526101208101600090526101408101600090526101608101600090526101808101600090526101a0016000905260043560005260026020526040600020604051610aeb81611c31565b8154815260018201546001600160a01b03166020820190815291610b1160028201611c70565b60408301908152600382015460608401929060ff8116610b3081611d55565b845260081c60ff166080850190610b4681611d55565b8152600482015460a08601908152600583015460c0870190815260068401549060e0880191825260078501549161010089019160ff8416151583526101208a0193600160a01b600190039060081c1684526008870154946101408b01958652600160a01b60019003600989015416966101608c01978852600a890154986101808d01998a52600b0154996101a08d019a8b52604051809e819e60208352516020830152600160a01b6001900390511690604001525160608d016101c090526101e08d01610c1291611d14565b9a51610c1d81611d55565b60808d015251610c2c81611d55565b60a08c01525160c08b01525160e08a015251610100890152511515610120880152516001600160a01b039081166101408801529051610160870152905116610180850152516101a0840152516101c08301520390f35b346100f55760003660031901126100f5576040517f00000000000000000000000000000000000000000000000000000000000000006001600160a01b03168152602090f35b346100f557610cd536611bb3565b906000526004602052604060002080548210156100f557602091610cf891611bc9565b90549060031b1c604051908152f35b346100f55760003660031901126100f5576000546040516001600160a01b039091168152602090f35b346100f55760603660031901126100f557602435600435610d4f611ef2565b8060005260026020526040600020600381019060ff825460081c16610d7381611d55565b61116057600481015442101561111c5783156110d75760405163ae85d01960e01b815260606004820152601a60648201527f414354494f4e5f50415254494349504154455f534552564943450000000000006084820152336024820152604480359082015260208160a4817f00000000000000000000000000000000000000000000000000000000000000006001600160a01b03165afa9081156105d3576000916110a5575b50610e566020610e298388611d8d565b6040516323b872dd60e01b8152336004820152306024820152604481019190915291829081906064820190565b038160007f00000000000000000000000000000000000000000000000000000000000000006001600160a01b03165af19081156105d357600091611086575b50156110415780611032575b5060058101610eb1858254611d8d565b905560ff6000925416610ec381611d55565b15610f01575b5060405192835260208301527f1c4199218aad88ba32390b01e8e6a81983382ab9a80aabfe3d2d042253c53b3e60403393a360018055005b906103e88402908482046103e80361101e5750670de0b6b3a76400009004908115610fda57600801610f34828254611d8d565b815582600052600360205260406000208054600160401b811015610fc457610f6191600182018155611bc9565b81549060031b9033821b9160018060a01b03901b191617905582600052600460205260406000209054908054600160401b811015610fc457610fa891600182018155611bc9565b819291549060031b91821b91600019901b191617905583610ec9565b634e487b7160e01b600052604160045260246000fd5b606460405162461bcd60e51b815260206004820152602060248201527f46543a20416d6f756e7420746f6f20736d616c6c20666f7220636f75706f6e736044820152fd5b634e487b7160e01b81526011600452602490fd5b61103b90612037565b84610ea1565b60405162461bcd60e51b815260206004820152601960248201527f46543a20546f6b656e207472616e73666572206661696c6564000000000000006044820152606490fd5b61109f915060203d6020116105cc576105be8183611c4e565b86610e95565b906020823d6020116110cf575b816110bf60209383611c4e565b8101031261075557505185610e19565b3d91506110b2565b60405162461bcd60e51b815260206004820152601b60248201527f46543a20416d6f756e74206d75737420626520706f73697469766500000000006044820152606490fd5b606460405162461bcd60e51b815260206004820152602060248201527f46543a2050617274696369706174696f6e2074696d652068617320656e6465646044820152fd5b60405162461bcd60e51b8152602060048201526016602482015275232a1d1020b1ba34b7b71034b9903737ba1037b832b760511b6044820152606490fd5b346100f55760203660031901126100f557600435600052600260205260406000208054600160a01b6001900360018301541691600281016111de90611c70565b60038201549160ff83169260081c60ff16600482015460058301546006840154600785015491600886015493600160a01b6001900360098801541695600a88015497600b0154986040519c8d9c8d5260208d015260408c016101c090526101c08c0161124991611d14565b9961125381611d55565b60608c015261126181611d55565b60808b015260a08a015260c089015260e088015260ff8116151561010088015260081c6001600160a01b03166101208701526101408601526101608501526101808401526101a08301520390f35b346100f55760003660031901126100f5576112c86122ed565b600080546001600160a01b0319811682556001600160a01b03167f8be0079c531659141344cd1fd0a4f28419497f9722a3daafe3b4186f6b6457e08280a3005b346100f55761131636611bb3565b906000526003602052604060002080548210156100f55760209161133991611bc9565b905460405160039290921b1c6001600160a01b03168152f35b346100f55760003660031901126100f5576040517f00000000000000000000000000000000000000000000000000000000000000006001600160a01b03168152602090f35b346100f55760003660031901126100f55760206113b2611d9a565b604051908152f35b346100f55760a03660031901126100f557600260243510156100f55760443560643567ffffffffffffffff81116100f557366023820112156100f55780600401359067ffffffffffffffff82116100f55736602483830101116100f55761141f611ef2565b60405163ae85d01960e01b8152606060048201526015606482015274414354494f4e5f4352454154455f5345525649434560581b60848083019190915233602483015235604482015260208160a4817f00000000000000000000000000000000000000000000000000000000000000006001600160a01b03165afa9081156105d357600091611b81575b5080611a79575b5060055492600019841461085557600184016005556114d0602435611d55565b60243561199b575050506114e2611d9a565b8015611956576000906040516114f9604082611c4e565b601581527453706f7274696e67204c6f7474657279204472617760581b6020820152915b6040516323b872dd60e01b81523360048201523060248201526044810183905260208160648160006001600160a01b037f0000000000000000000000000000000000000000000000000000000000000000165af19081156105d357600091611937575b50156118f25761159260043542611d8d565b6040519161159f83611c31565b600186018352602083019333855260408401928684526115c0602435611d55565b60243560608601526000608086015260a0850152600060c085015260e0840152600061010084015260018060a01b031661012083015260006101408301526000610160830152600061018083015260006101a08301526001850160005260026020526040600020928251845560018060a01b03905116600184019060018060a01b03166bffffffffffffffffffffffff60a01b8254161790555180519067ffffffffffffffff8211610fc4576116796002850154611bf7565b601f81116118a7575b50602090601f8311600114611832579180600b94926101a094600092611827575b50508160011b916000199060031b1c19161760028501555b6003840160608201516116cd81611d55565b6116d681611d55565b60ff8019835416911617815560808201516116f081611d55565b6116f981611d55565b61ff0082549160081b169061ff00191617905560a0810151600485015560c0810151600585015560e0810151600685015560078401610100820151151560ff80198354169116178155610120820151815490610100600160a81b039060081b1690610100600160a81b031916179055610140810151600885015560018060a01b0361016082015116600985019060018060a01b03166bffffffffffffffffffffffff60a01b825416179055610180810151600a85015501519101556001820160005260026020527f07231e538d6ec3dff4f8cb6190b7150c7a186dfebe215524b8bc4ead1952f8dd600460406000200154604051906117f9602435611d55565b60243582526020820152606060408201528061181e6001339601946060830190611d14565b0390a360018055005b0151905088806116a3565b9060028501600052806000209160005b601f198516811061188f575092600b94926001926101a09583601f19811610611876575b505050811b0160028501556116bb565b015160001960f88460031b161c19169055888080611866565b91926020600181928685015181550194019201611842565b600285016000526020600020601f840160051c810191602085106118e8575b601f0160051c01905b8181106118dc5750611682565b600081556001016118cf565b90915081906118c6565b60405162461bcd60e51b815260206004820152601960248201527f46543a205374616b65207472616e73666572206661696c6564000000000000006044820152606490fd5b611950915060203d6020116105cc576105be8183611c4e565b85611580565b60405162461bcd60e51b815260206004820152601c60248201527f46543a204d696e207374616b652063616e6e6f74206265207a65726f000000006044820152606490fd5b8015611a345790339280151580611a29575b156119e457602060009180602483601f19601f84011601956119d26040519788611c4e565b8287520183860137830101529161151d565b60405162461bcd60e51b815260206004820152601e60248201527f46543a20496e76616c6964206465736372697074696f6e206c656e67746800006044820152606490fd5b506101f481106119ad565b60405162461bcd60e51b815260206004820152601d60248201527f46543a2043686172697479207374616b65206d757374206265203e20300000006044820152606490fd5b6040516323b872dd60e01b81523360048201523060248201526044810182905260208160648160006001600160a01b037f0000000000000000000000000000000000000000000000000000000000000000165af19081156105d357600091611b62575b5015611b1d57611aeb81612037565b6040519081527f489eb325a7dad66553223a4d6ed1e01abd32942a10ffb076cb0d65b57147c5b560203392a2836114b0565b60405162461bcd60e51b815260206004820152601e60248201527f46543a204661696c656420746f20706179206372656174696f6e2066656500006044820152606490fd5b611b7b915060203d6020116105cc576105be8183611c4e565b85611adc565b906020823d602011611bab575b81611b9b60209383611c4e565b81010312610755575051846114a9565b3d9150611b8e565b60409060031901126100f5576004359060243590565b8054821015611be15760005260206000200190600090565b634e487b7160e01b600052603260045260246000fd5b90600182811c92168015611c27575b6020831014611c1157565b634e487b7160e01b600052602260045260246000fd5b91607f1691611c06565b6101c0810190811067ffffffffffffffff821117610fc457604052565b90601f8019910116810190811067ffffffffffffffff821117610fc457604052565b9060405191826000825492611c8484611bf7565b8084529360018116908115611cf25750600114611cab575b50611ca992500383611c4e565b565b90506000929192526020600020906000915b818310611cd6575050906020611ca99282010138611c9c565b6020919350806001915483858901015201910190918492611cbd565b905060209250611ca994915060ff191682840152151560051b82010138611c9c565b919082519283825260005b848110611d40575050826000602080949584010152601f8019910116010190565b80602080928401015182828601015201611d1f565b60021115611d5f57565b634e487b7160e01b600052602160045260246000fd5b908160209103126100f5575180151581036100f55790565b9190820180921161085557565b6040516318160ddd60e01b81526020816004817f00000000000000000000000000000000000000000000000000000000000000006001600160a01b03165afa80156105d357600090611dfe575b620f4240900490508015611df85790565b50600190565b506020813d602011611e2b575b81611e1860209383611c4e565b810103126100f557620f42409051611de7565b3d9150611e0b565b8181029291811591840414171561085557565b9190820391821161085557565b906040519182815491828252602082019060005260206000209260005b818110611e85575050611ca992500383611c4e565b84546001600160a01b0316835260019485019487945060209093019201611e70565b906040519182815491828252602082019060005260206000209260005b818110611ed9575050611ca992500383611c4e565b8454835260019485019487945060209093019201611ec4565b600260015414611f03576002600155565b633ee5aeb560e01b60005260046000fd5b908160209103126100f557516001600160a01b03811681036100f55790565b15611f3a57565b60405162461bcd60e51b815260206004820152602260248201527f46543a205472656173757279206e6f7420636f6e6669677572656420696e20486044820152613ab160f11b6064820152608490fd5b15611f9157565b60405162461bcd60e51b815260206004820152602c60248201527f46543a2044656c65676174696f6e204d616e61676572206e6f7420636f6e666960448201526b33bab932b21034b710243ab160a11b6064820152608490fd5b15611ff257565b60405162461bcd60e51b815260206004820152601a60248201527f46543a2046656520746f205472656173757279206661696c65640000000000006044820152606490fd5b60009080156122e957604051633800918160e21b81527f00000000000000000000000000000000000000000000000000000000000000006001600160a01b0316602082600481845afa9182156121e45784926122c4575b5060206004916040519283809263253006b160e01b82525afa9081156121e4578491612295575b506120ca6001600160a01b0383161515611f33565b6001600160a01b038116926120e0841515611f8a565b6120ee8160011c8092611e46565b92816121ef575b505081612103575b50505050565b60405163095ea7b360e01b81526001600160a01b0390911660048201526024810182905260208180604481010381877f00000000000000000000000000000000000000000000000000000000000000006001600160a01b03165af180156121e4576121c7575b50813b156121c357829160448392604051948593849263bdd071fb60e01b845282600485015260248401525af180156121b8576121a8575b80806120fd565b816121b291611c4e565b386121a1565b6040513d84823e3d90fd5b8280fd5b6121df9060203d6020116105cc576105be8183611c4e565b612169565b6040513d86823e3d90fd5b60405163a9059cbb60e01b81526001600160a01b039091166004820152602481019190915260208180604481010381887f00000000000000000000000000000000000000000000000000000000000000006001600160a01b03165af190811561228a579061226491869161226b575b50611feb565b38806120f5565b612284915060203d6020116105cc576105be8183611c4e565b3861225e565b6040513d87823e3d90fd5b6122b7915060203d6020116122bd575b6122af8183611c4e565b810190611f14565b386120b5565b503d6122a5565b60049192506122e1602091823d84116122bd576122af8183611c4e565b92915061208e565b5050565b6000546001600160a01b0316330361230157565b63118cdaa760e01b6000523360045260246000fd5b1561231d57565b60405162461bcd60e51b815260206004820152601960248201527f46543a2046656520746f2043726561746f72206661696c6564000000000000006044820152606490fd5b9060009180156127945760405163253006b160e01b81527f00000000000000000000000000000000000000000000000000000000000000006001600160a01b031691602082600481865afa91821561228a578592612773575b50604051633800918160e21b815290602082600481875afa918215612768578692612747575b506001600160a01b038316946123f8861515611f8a565b61240c6001600160a01b0384161515611f33565b604051631da3ddcd60e31b8152602060048201819052601b60248301527f414354494f4e5f43415553455f44454c454741544f525f424950530000000000604483015281606481895afa90811561273c578891612706575b5060405195631da3ddcd60e31b875260206004880152601a60248801527f414354494f4e5f43415553455f54524541535552595f424950530000000000006044880152602087606481845afa9687156126c65789976126d1575b5090602060649594939260405196878092631da3ddcd60e31b8252846004830152601960248301527f414354494f4e5f43415553455f43524541544f525f424950530000000000000060448301525afa9485156126c657899561268c575b5061254261271061253a81612532819588611e33565b049986611e33565b049584611e33565b049161255783612552878a611d8d565b611d8d565b818111612621575b50508161257b575b5050816121ef575050816121035750505050565b60405163a9059cbb60e01b81526001600160a01b0390911660048201526024810191909152602081806044810103818a7f00000000000000000000000000000000000000000000000000000000000000006001600160a01b03165af190811561261657906125f09188916125f7575b50612316565b3880612567565b612610915060203d6020116105cc576105be8183611c4e565b386125ea565b6040513d89823e3d90fd5b91969182156126475761263e929161263891611e46565b90611e46565b945b388061255f565b9196949182156126655761265f929161263891611e46565b92612640565b83959295612675575b5050612640565b61268492939161263891611e46565b90388061266e565b9094506020813d6020116126be575b816126a860209383611c4e565b810103126126ba57519361254261251c565b8880fd5b3d915061269b565b6040513d8b823e3d90fd5b9096506020813d6020116126fe575b816126ed60209383611c4e565b810103126126ba57519560206124be565b3d91506126e0565b90506020813d602011612734575b8161272160209383611c4e565b81010312612730575138612464565b8780fd5b3d9150612714565b6040513d8a823e3d90fd5b61276191925060203d6020116122bd576122af8183611c4e565b90386123e1565b6040513d88823e3d90fd5b61278d91925060203d6020116122bd576122af8183611c4e565b90386123bb565b505050565b8051821015611be15760209160051b010190565b9190918060005260046020526127c66040600020611ea7565b9060005260036020526127dc6040600020611e53565b9080518015908115612972575b8115612969575b8115612949575b50612941576000908051600019810190811161292d579490929394928051935b8084111561284e575b5050505081518110600014612847576001600160a01b03916128429190612799565b511690565b5050600090565b61286861285f858397959697611e46565b60011c86611d8d565b9485156000811561290f575060005b8611806128fb575b156128935750505050505038808080612820565b6128a4878596979a99989495612799565b518911156128c75750506001810180911161085557905b95919092939495612817565b9092506128f1576000198101908111156128bb57634e487b7160e01b600052601160045260246000fd5b8394959650612820565b506129068785612799565b5186111561287f565b60001988019088821161101e57506129279085612799565b51612877565b634e487b7160e01b83526011600452602483fd5b506000925050565b600019810191508111610855576129609082612799565b518411386127f7565b851591506127f0565b835181141591506127e9565b91906000908315612c535760405163253006b160e01b81527f00000000000000000000000000000000000000000000000000000000000000006001600160a01b031694602082600481895afa9182156121e4578492612c32575b50604051633800918160e21b81526020816004818a5afa90811561228a578591612c13575b506001600160a01b03831693612a14851515611f8a565b612a286001600160a01b0383161515611f33565b60405190631da3ddcd60e31b825260206004830152601960248301527f414354494f4e5f53504f52545f43524541544f525f424950530000000000000060448301526020826064818c5afa918215612616578792612bdb575b5060405191631da3ddcd60e31b835260206004840152601b60248401527f414354494f4e5f53504f52545f44454c454741544f525f42495053000000000060448401526020836064818d5afa92831561273c578893612ba4575b50602060649798999a60405198898092631da3ddcd60e31b8252846004830152601a60248301527f414354494f4e5f53504f52545f54524541535552595f4249505300000000000060448301525afa9687156126c6578997612b6e575b50612b5e612710612b5681612b4e81958a611e33565b049588611e33565b049786611e33565b049361255783612552878a611d8d565b9096506020813d602011612b9c575b81612b8a60209383611c4e565b810103126126ba575195612b5e612b38565b3d9150612b7d565b99925060208a3d602011612bd3575b81612bc060209383611c4e565b8101031261273057985191986020612adb565b3d9150612bb3565b9091506020813d602011612c0b575b81612bf760209383611c4e565b81010312612c0757519038612a81565b8680fd5b3d9150612bea565b612c2c915060203d6020116122bd576122af8183611c4e565b386129fd565b612c4c91925060203d6020116122bd576122af8183611c4e565b90386129d8565b5050905056fea2646970667358221220416729f0bdde2151b869da6522606e4eeee1a43cc10f734d6a299ccfeb71c39064736f6c634300081c0033",
  "linkReferences": {},
  "deployedLinkReferences": {}
}