{
  "_format": "hh-sol-artifact-1",
  "contractName": "SimpleBKCFaucet",
  "sourceName": "contracts/SimpleBKCFaucet.sol",
  "abi": [
    {
      "inputs": [
        {
          "internalType": "address",
          "name": "_tokenAddress",
          "type": "address"
        }
      ],
      "stateMutability": "nonpayable",
      "type": "constructor"
    },
    {
      "inputs": [
        {
          "internalType": "address",
          "name": "owner",
          "type": "address"
        }
      ],
      "name": "OwnableInvalidOwner",
      "type": "error"
    },
    {
      "inputs": [
        {
          "internalType": "address",
          "name": "account",
          "type": "address"
        }
      ],
      "name": "OwnableUnauthorizedAccount",
      "type": "error"
    },
    {
      "inputs": [],
      "name": "ReentrancyGuardReentrantCall",
      "type": "error"
    },
    {
      "anonymous": false,
      "inputs": [
        {
          "indexed": true,
          "internalType": "address",
          "name": "previousOwner",
          "type": "address"
        },
        {
          "indexed": true,
          "internalType": "address",
          "name": "newOwner",
          "type": "address"
        }
      ],
      "name": "OwnershipTransferred",
      "type": "event"
    },
    {
      "anonymous": false,
      "inputs": [
        {
          "indexed": true,
          "internalType": "address",
          "name": "recipient",
          "type": "address"
        },
        {
          "indexed": false,
          "internalType": "uint256",
          "name": "amount",
          "type": "uint256"
        }
      ],
      "name": "TokensClaimed",
      "type": "event"
    },
    {
      "inputs": [],
      "name": "claim",
      "outputs": [],
      "stateMutability": "nonpayable",
      "type": "function"
    },
    {
      "inputs": [],
      "name": "claimAmount",
      "outputs": [
        {
          "internalType": "uint256",
          "name": "",
          "type": "uint256"
        }
      ],
      "stateMutability": "view",
      "type": "function"
    },
    {
      "inputs": [
        {
          "internalType": "address",
          "name": "",
          "type": "address"
        }
      ],
      "name": "hasClaimed",
      "outputs": [
        {
          "internalType": "bool",
          "name": "",
          "type": "bool"
        }
      ],
      "stateMutability": "view",
      "type": "function"
    },
    {
      "inputs": [],
      "name": "owner",
      "outputs": [
        {
          "internalType": "address",
          "name": "",
          "type": "address"
        }
      ],
      "stateMutability": "view",
      "type": "function"
    },
    {
      "inputs": [],
      "name": "renounceOwnership",
      "outputs": [],
      "stateMutability": "nonpayable",
      "type": "function"
    },
    {
      "inputs": [],
      "name": "token",
      "outputs": [
        {
          "internalType": "contract IERC20",
          "name": "",
          "type": "address"
        }
      ],
      "stateMutability": "view",
      "type": "function"
    },
    {
      "inputs": [
        {
          "internalType": "address",
          "name": "newOwner",
          "type": "address"
        }
      ],
      "name": "transferOwnership",
      "outputs": [],
      "stateMutability": "nonpayable",
      "type": "function"
    },
    {
      "inputs": [],
      "name": "withdrawETH",
      "outputs": [],
      "stateMutability": "nonpayable",
      "type": "function"
    },
    {
      "inputs": [],
      "name": "withdrawRemainingTokens",
      "outputs": [],
      "stateMutability": "nonpayable",
      "type": "function"
    },
    {
      "stateMutability": "payable",
      "type": "receive"
    }
  ],
  "bytecode": "0x60c03461014857601f61098638819003918201601f19168301916001600160401b0383118484101761014d5780849260209460405283398101031261014857516001600160a01b038116908190036101485733156101325760008054336001600160a01b03198216811783556040519290916001600160a01b0316907f8be0079c531659141344cd1fd0a4f28419497f9722a3daafe3b4186f6b6457e09080a3600180556902a5a058fc295ed0000060a05281156100f057506080526040516108229081610164823960805181818160f2015281816102da0152610547015260a05181818161043d015261058a0152f35b62461bcd60e51b815260206004820152601d60248201527f4661756365743a20496e76616c696420746f6b656e20616464726573730000006044820152606490fd5b631e4fbdf760e01b600052600060045260246000fd5b600080fd5b634e487b7160e01b600052604160045260246000fdfe608080604052600436101561006c575b50361561001b57600080fd5b60405162461bcd60e51b8152602060048201526024808201527f4661756365743a20436f6e747261637420646f6573206e6f74206163636570746044820152630408aa8960e31b6064820152608490fd5b60003560e01c9081634e71d92d146104fc57508063715018a6146104a357806373b2e80e14610460578063830953ab146104255780638afbf669146102ac5780638da5cb5b14610283578063e086e5ec146101b3578063f2fde38b146101265763fc0c546a146100dc573861000f565b34610121576000366003190112610121576040517f00000000000000000000000000000000000000000000000000000000000000006001600160a01b03168152602090f35b600080fd5b34610121576020366003190112610121576004356001600160a01b03811690819003610121576101546107c3565b801561019d57600080546001600160a01b03198116831782556001600160a01b0316907f8be0079c531659141344cd1fd0a4f28419497f9722a3daafe3b4186f6b6457e09080a3005b631e4fbdf760e01b600052600060045260246000fd5b34610121576000366003190112610121576101cc6107c3565b6000805481908190819047906001600160a01b03165af13d1561027e573d67ffffffffffffffff81116102685760405190610211601f8201601f191660200183610789565b8152600060203d92013e5b1561022357005b60405162461bcd60e51b815260206004820152601d60248201527f4661756365743a20455448207769746864726177616c206661696c65640000006044820152606490fd5b634e487b7160e01b600052604160045260246000fd5b61021c565b34610121576000366003190112610121576000546040516001600160a01b039091168152602090f35b34610121576000366003190112610121576102c56107c3565b6040516370a0823160e01b81523060048201527f00000000000000000000000000000000000000000000000000000000000000006001600160a01b0316602082602481845afa9182156103e2576000926103ee575b508161032257005b60405163a9059cbb60e01b81523360048201526024810192909252602090829060449082906000905af19081156103e2576000916103b3575b501561036357005b60405162461bcd60e51b815260206004820152602260248201527f4661756365743a205769746864726177616c207472616e73666572206661696c604482015261195960f21b6064820152608490fd5b6103d5915060203d6020116103db575b6103cd8183610789565b8101906107ab565b8161035b565b503d6103c3565b6040513d6000823e3d90fd5b90916020823d60201161041d575b8161040960209383610789565b8101031261041a575051908261031a565b80fd5b3d91506103fc565b346101215760003660031901126101215760206040517f00000000000000000000000000000000000000000000000000000000000000008152f35b34610121576020366003190112610121576004356001600160a01b03811690819003610121576000526002602052602060ff604060002054166040519015158152f35b34610121576000366003190112610121576104bc6107c3565b600080546001600160a01b0319811682556001600160a01b03167f8be0079c531659141344cd1fd0a4f28419497f9722a3daafe3b4186f6b6457e08280a3005b346101215760003660031901126101215760026001541461077857600260015533600052600260205260ff60406000205416610723576040516370a0823160e01b81523060048201527f00000000000000000000000000000000000000000000000000000000000000006001600160a01b0316602082602481845afa9182156103e2576000926106ef575b507f000000000000000000000000000000000000000000000000000000000000000080921061069e57336000818152600260209081526040808320805460ff191660011790555163a9059cbb60e01b8152600481019390935260248301859052919283916044918391905af19081156103e25760009161067f575b501561063a576040519081527f896e034966eaaf1adc54acc0f257056febbd300c9e47182cf761982cf1f5e43060203392a260018055005b60405162461bcd60e51b815260206004820152601d60248201527f4661756365743a20546f6b656e207472616e73666572206661696c65640000006044820152606490fd5b610698915060203d6020116103db576103cd8183610789565b82610602565b60405162461bcd60e51b8152602060048201526024808201527f4661756365743a20496e73756666696369656e742066756e647320696e2066616044820152631d58d95d60e21b6064820152608490fd5b9091506020813d60201161071b575b8161070b60209383610789565b8101031261012157519082610587565b3d91506106fe565b62461bcd60e51b815260206004820152602a60248201527f4661756365743a20416464726573732068617320616c726561647920636c61696044820152696d656420746f6b656e7360b01b6064820152608490fd5b633ee5aeb560e01b60005260046000fd5b90601f8019910116810190811067ffffffffffffffff82111761026857604052565b90816020910312610121575180151581036101215790565b6000546001600160a01b031633036107d757565b63118cdaa760e01b6000523360045260246000fdfea2646970667358221220259079f2854a03be3416fba334c48f85a3db1151a21a3ab87fb1f8d750215b6764736f6c634300081c0033",
  "linkReferences": {},
  "deployedLinkReferences": {}
}