{
  "_format": "hh-sol-artifact-1",
  "contractName": "BKCToken",
  "sourceName": "contracts/BKCToken.sol",
  "abi": [
    {
      "inputs": [
        {
          "internalType": "address",
          "name": "_initialOwner",
          "type": "address"
        }
      ],
      "stateMutability": "nonpayable",
      "type": "constructor"
    },
    {
      "inputs": [
        {
          "internalType": "address",
          "name": "spender",
          "type": "address"
        },
        {
          "internalType": "uint256",
          "name": "allowance",
          "type": "uint256"
        },
        {
          "internalType": "uint256",
          "name": "needed",
          "type": "uint256"
        }
      ],
      "name": "ERC20InsufficientAllowance",
      "type": "error"
    },
    {
      "inputs": [
        {
          "internalType": "address",
          "name": "sender",
          "type": "address"
        },
        {
          "internalType": "uint256",
          "name": "balance",
          "type": "uint256"
        },
        {
          "internalType": "uint256",
          "name": "needed",
          "type": "uint256"
        }
      ],
      "name": "ERC20InsufficientBalance",
      "type": "error"
    },
    {
      "inputs": [
        {
          "internalType": "address",
          "name": "approver",
          "type": "address"
        }
      ],
      "name": "ERC20InvalidApprover",
      "type": "error"
    },
    {
      "inputs": [
        {
          "internalType": "address",
          "name": "receiver",
          "type": "address"
        }
      ],
      "name": "ERC20InvalidReceiver",
      "type": "error"
    },
    {
      "inputs": [
        {
          "internalType": "address",
          "name": "sender",
          "type": "address"
        }
      ],
      "name": "ERC20InvalidSender",
      "type": "error"
    },
    {
      "inputs": [
        {
          "internalType": "address",
          "name": "spender",
          "type": "address"
        }
      ],
      "name": "ERC20InvalidSpender",
      "type": "error"
    },
    {
      "inputs": [
        {
          "internalType": "address",
          "name": "owner",
          "type": "address"
        }
      ],
      "name": "OwnableInvalidOwner",
      "type": "error"
    },
    {
      "inputs": [
        {
          "internalType": "address",
          "name": "account",
          "type": "address"
        }
      ],
      "name": "OwnableUnauthorizedAccount",
      "type": "error"
    },
    {
      "anonymous": false,
      "inputs": [
        {
          "indexed": true,
          "internalType": "address",
          "name": "owner",
          "type": "address"
        },
        {
          "indexed": true,
          "internalType": "address",
          "name": "spender",
          "type": "address"
        },
        {
          "indexed": false,
          "internalType": "uint256",
          "name": "value",
          "type": "uint256"
        }
      ],
      "name": "Approval",
      "type": "event"
    },
    {
      "anonymous": false,
      "inputs": [
        {
          "indexed": true,
          "internalType": "address",
          "name": "manager",
          "type": "address"
        }
      ],
      "name": "DelegationManagerSet",
      "type": "event"
    },
    {
      "anonymous": false,
      "inputs": [
        {
          "indexed": true,
          "internalType": "address",
          "name": "previousOwner",
          "type": "address"
        },
        {
          "indexed": true,
          "internalType": "address",
          "name": "newOwner",
          "type": "address"
        }
      ],
      "name": "OwnershipTransferred",
      "type": "event"
    },
    {
      "anonymous": false,
      "inputs": [
        {
          "indexed": true,
          "internalType": "address",
          "name": "manager",
          "type": "address"
        }
      ],
      "name": "RewardManagerSet",
      "type": "event"
    },
    {
      "anonymous": false,
      "inputs": [
        {
          "indexed": true,
          "internalType": "address",
          "name": "from",
          "type": "address"
        },
        {
          "indexed": true,
          "internalType": "address",
          "name": "to",
          "type": "address"
        },
        {
          "indexed": false,
          "internalType": "uint256",
          "name": "value",
          "type": "uint256"
        }
      ],
      "name": "Transfer",
      "type": "event"
    },
    {
      "anonymous": false,
      "inputs": [
        {
          "indexed": true,
          "internalType": "address",
          "name": "treasury",
          "type": "address"
        }
      ],
      "name": "TreasuryWalletSet",
      "type": "event"
    },
    {
      "inputs": [],
      "name": "MAX_SUPPLY",
      "outputs": [
        {
          "internalType": "uint256",
          "name": "",
          "type": "uint256"
        }
      ],
      "stateMutability": "view",
      "type": "function"
    },
    {
      "inputs": [],
      "name": "TGE_SUPPLY",
      "outputs": [
        {
          "internalType": "uint256",
          "name": "",
          "type": "uint256"
        }
      ],
      "stateMutability": "view",
      "type": "function"
    },
    {
      "inputs": [
        {
          "internalType": "address",
          "name": "owner",
          "type": "address"
        },
        {
          "internalType": "address",
          "name": "spender",
          "type": "address"
        }
      ],
      "name": "allowance",
      "outputs": [
        {
          "internalType": "uint256",
          "name": "",
          "type": "uint256"
        }
      ],
      "stateMutability": "view",
      "type": "function"
    },
    {
      "inputs": [
        {
          "internalType": "address",
          "name": "spender",
          "type": "address"
        },
        {
          "internalType": "uint256",
          "name": "value",
          "type": "uint256"
        }
      ],
      "name": "approve",
      "outputs": [
        {
          "internalType": "bool",
          "name": "",
          "type": "bool"
        }
      ],
      "stateMutability": "nonpayable",
      "type": "function"
    },
    {
      "inputs": [
        {
          "internalType": "address",
          "name": "account",
          "type": "address"
        }
      ],
      "name": "balanceOf",
      "outputs": [
        {
          "internalType": "uint256",
          "name": "",
          "type": "uint256"
        }
      ],
      "stateMutability": "view",
      "type": "function"
    },
    {
      "inputs": [],
      "name": "decimals",
      "outputs": [
        {
          "internalType": "uint8",
          "name": "",
          "type": "uint8"
        }
      ],
      "stateMutability": "view",
      "type": "function"
    },
    {
      "inputs": [],
      "name": "delegationManagerAddress",
      "outputs": [
        {
          "internalType": "address",
          "name": "",
          "type": "address"
        }
      ],
      "stateMutability": "view",
      "type": "function"
    },
    {
      "inputs": [
        {
          "internalType": "address",
          "name": "to",
          "type": "address"
        },
        {
          "internalType": "uint256",
          "name": "amount",
          "type": "uint256"
        }
      ],
      "name": "mint",
      "outputs": [],
      "stateMutability": "nonpayable",
      "type": "function"
    },
    {
      "inputs": [],
      "name": "name",
      "outputs": [
        {
          "internalType": "string",
          "name": "",
          "type": "string"
        }
      ],
      "stateMutability": "view",
      "type": "function"
    },
    {
      "inputs": [],
      "name": "owner",
      "outputs": [
        {
          "internalType": "address",
          "name": "",
          "type": "address"
        }
      ],
      "stateMutability": "view",
      "type": "function"
    },
    {
      "inputs": [],
      "name": "renounceOwnership",
      "outputs": [],
      "stateMutability": "nonpayable",
      "type": "function"
    },
    {
      "inputs": [],
      "name": "rewardManagerAddress",
      "outputs": [
        {
          "internalType": "address",
          "name": "",
          "type": "address"
        }
      ],
      "stateMutability": "view",
      "type": "function"
    },
    {
      "inputs": [
        {
          "internalType": "address",
          "name": "_manager",
          "type": "address"
        }
      ],
      "name": "setDelegationManager",
      "outputs": [],
      "stateMutability": "nonpayable",
      "type": "function"
    },
    {
      "inputs": [
        {
          "internalType": "address",
          "name": "_manager",
          "type": "address"
        }
      ],
      "name": "setRewardManager",
      "outputs": [],
      "stateMutability": "nonpayable",
      "type": "function"
    },
    {
      "inputs": [
        {
          "internalType": "address",
          "name": "_treasury",
          "type": "address"
        }
      ],
      "name": "setTreasuryWallet",
      "outputs": [],
      "stateMutability": "nonpayable",
      "type": "function"
    },
    {
      "inputs": [],
      "name": "symbol",
      "outputs": [
        {
          "internalType": "string",
          "name": "",
          "type": "string"
        }
      ],
      "stateMutability": "view",
      "type": "function"
    },
    {
      "inputs": [],
      "name": "totalSupply",
      "outputs": [
        {
          "internalType": "uint256",
          "name": "",
          "type": "uint256"
        }
      ],
      "stateMutability": "view",
      "type": "function"
    },
    {
      "inputs": [
        {
          "internalType": "address",
          "name": "to",
          "type": "address"
        },
        {
          "internalType": "uint256",
          "name": "value",
          "type": "uint256"
        }
      ],
      "name": "transfer",
      "outputs": [
        {
          "internalType": "bool",
          "name": "",
          "type": "bool"
        }
      ],
      "stateMutability": "nonpayable",
      "type": "function"
    },
    {
      "inputs": [
        {
          "internalType": "address",
          "name": "from",
          "type": "address"
        },
        {
          "internalType": "address",
          "name": "to",
          "type": "address"
        },
        {
          "internalType": "uint256",
          "name": "value",
          "type": "uint256"
        }
      ],
      "name": "transferFrom",
      "outputs": [
        {
          "internalType": "bool",
          "name": "",
          "type": "bool"
        }
      ],
      "stateMutability": "nonpayable",
      "type": "function"
    },
    {
      "inputs": [
        {
          "internalType": "address",
          "name": "newOwner",
          "type": "address"
        }
      ],
      "name": "transferOwnership",
      "outputs": [],
      "stateMutability": "nonpayable",
      "type": "function"
    },
    {
      "inputs": [],
      "name": "treasuryWallet",
      "outputs": [
        {
          "internalType": "address",
          "name": "",
          "type": "address"
        }
      ],
      "stateMutability": "view",
      "type": "function"
    }
  ],
  "bytecode": "0x60806040523461041f576110616020813803918261001c81610424565b93849283398101031261041f57516001600160a01b0381169081900361041f576100466040610424565b9060088252672130b1b5b1b7b4b760c11b60208301526100666040610424565b6003815262424b4360e81b602082015282519091906001600160401b03811161032857600354600181811c91168015610415575b602082101461030857601f81116103b0575b506020601f8211600114610349578192939460009261033e575b50508160011b916000199060031b1c1916176003555b81516001600160401b03811161032857600454600181811c9116801561031e575b602082101461030857601f81116102a3575b50602092601f821160011461023e5792819293600092610233575b50508160011b916000199060031b1c1916176004555b801561021d57600580546001600160a01b03198116831790915581906001600160a01b03167f8be0079c531659141344cd1fd0a4f28419497f9722a3daafe3b4186f6b6457e0600080a36002546a2116545850052128000000810180911161020757600255600081815280602052604081206a211654585005212800000081540190557fddf252ad1be2c89b69c2b068fc378daa952ba7f163c4a11628f55a4df523b3ef60206040516a21165458500521280000008152a3604051610c17908161044a8239f35b634e487b7160e01b600052601160045260246000fd5b631e4fbdf760e01b600052600060045260246000fd5b01519050388061012a565b601f198216936004600052806000209160005b86811061028b5750836001959610610272575b505050811b01600455610140565b015160001960f88460031b161c19169055388080610264565b91926020600181928685015181550194019201610251565b60046000527f8a35acfbc15ff81a39ae7d344fd709f28e8600b4aa8c65c6b64bfe7fe36bd19b601f830160051c810191602084106102fe575b601f0160051c01905b8181106102f2575061010f565b600081556001016102e5565b90915081906102dc565b634e487b7160e01b600052602260045260246000fd5b90607f16906100fd565b634e487b7160e01b600052604160045260246000fd5b0151905038806100c6565b601f198216906003600052806000209160005b8181106103985750958360019596971061037f575b505050811b016003556100dc565b015160001960f88460031b161c19169055388080610371565b9192602060018192868b01518155019401920161035c565b60036000527fc2575a0e9e593c00f959f8c92f12db2869c3395a3b0502d05e2516446f71f85b601f830160051c8101916020841061040b575b601f0160051c01905b8181106103ff57506100ac565b600081556001016103f2565b90915081906103e9565b90607f169061009a565b600080fd5b6040519190601f01601f191682016001600160401b038111838210176103285760405256fe608080604052600436101561001357600080fd5b60003560e01c90816306fdde031461099e57508063095ea7b314610918578063153ee5541461085857806318160ddd1461083a5780631a8d0de21461078057806323b872dd14610693578063313ce5671461067757806332cb6b0c1461065157806340c10f19146105535780634626402b1461052a57806370a08231146104f0578063715018a6146104935780637c81ff561461046d5780638da5cb5b1461044457806395d89b4114610323578063a8602fea14610269578063a9059cbb14610238578063b15e66891461020f578063dd62ed3e146101be578063dfebfdea146101955763f2fde38b1461010657600080fd5b346101905760203660031901126101905761011f610aba565b610127610b09565b6001600160a01b0316801561017a57600580546001600160a01b0319811683179091556001600160a01b03167f8be0079c531659141344cd1fd0a4f28419497f9722a3daafe3b4186f6b6457e0600080a3005b631e4fbdf760e01b600052600060045260246000fd5b600080fd5b34610190576000366003190112610190576008546040516001600160a01b039091168152602090f35b34610190576040366003190112610190576101d7610aba565b6101df610ad0565b6001600160a01b039182166000908152600160209081526040808320949093168252928352819020549051908152f35b34610190576000366003190112610190576007546040516001600160a01b039091168152602090f35b346101905760403660031901126101905761025e610254610aba565b6024359033610b32565b602060405160018152f35b3461019057602036600319011261019057610282610aba565b61028a610b09565b6001600160a01b031680156102d257600680546001600160a01b031916821790557f5695f8b02f5f53d02b408db3ed952c16f32f9701ad2691c44733f2a2d09225a9600080a2005b60405162461bcd60e51b8152602060048201526024808201527f424b433a2054726561737572792063616e6e6f74206265207a65726f206164646044820152637265737360e01b6064820152608490fd5b346101905760003660031901126101905760405160006004548060011c9060018116801561043a575b6020831081146104265782855290811561040a57506001146103b3575b50819003601f01601f191681019067ffffffffffffffff82118183101761039d5761039982918260405282610a71565b0390f35b634e487b7160e01b600052604160045260246000fd5b905060046000527f8a35acfbc15ff81a39ae7d344fd709f28e8600b4aa8c65c6b64bfe7fe36bd19b6000905b8282106103f457506020915082010182610369565b60018160209254838588010152019101906103df565b90506020925060ff191682840152151560051b82010182610369565b634e487b7160e01b84526022600452602484fd5b91607f169161034c565b34610190576000366003190112610190576005546040516001600160a01b039091168152602090f35b346101905760003660031901126101905760206040516a21165458500521280000008152f35b34610190576000366003190112610190576104ac610b09565b600580546001600160a01b031981169091556000906001600160a01b03167f8be0079c531659141344cd1fd0a4f28419497f9722a3daafe3b4186f6b6457e08280a3005b34610190576020366003190112610190576001600160a01b03610511610aba565b1660005260006020526020604060002054604051908152f35b34610190576000366003190112610190576006546040516001600160a01b039091168152602090f35b346101905760403660031901126101905761056c610aba565b60243590610578610b09565b6aa56fa5b99019a5c800000061059083600254610ae6565b1161060c576001600160a01b031680156105f657816105b3602093600254610ae6565b6002557fddf252ad1be2c89b69c2b068fc378daa952ba7f163c4a11628f55a4df523b3ef600093849284845283825260408420818154019055604051908152a380f35b63ec442f0560e01b600052600060045260246000fd5b60405162461bcd60e51b815260206004820152601760248201527f424b433a2045786365656473206d617820737570706c790000000000000000006044820152606490fd5b346101905760003660031901126101905760206040516aa56fa5b99019a5c80000008152f35b3461019057600036600319011261019057602060405160128152f35b34610190576060366003190112610190576106ac610aba565b6106b4610ad0565b6001600160a01b03821660008181526001602090815260408083203384529091529020549092604435929160001981106106f4575b5061025e9350610b32565b83811061076357841561074d5733156107375761025e946000526001602052604060002060018060a01b03331660005260205283604060002091039055846106e9565b634a1406b160e11b600052600060045260246000fd5b63e602df0560e01b600052600060045260246000fd5b8390637dc7a0d960e11b6000523360045260245260445260646000fd5b3461019057602036600319011261019057610799610aba565b6107a1610b09565b6001600160a01b031680156107e957600780546001600160a01b031916821790557f2296e6d8aebb5c81250fd381a114c2ec346fc44bc4582ba95cdcac0f09df6cd9600080a2005b60405162461bcd60e51b815260206004820152602360248201527f424b433a204d616e616765722063616e6e6f74206265207a65726f206164647260448201526265737360e81b6064820152608490fd5b34610190576000366003190112610190576020600254604051908152f35b3461019057602036600319011261019057610871610aba565b610879610b09565b6001600160a01b031680156108c157600880546001600160a01b031916821790557f4b722357462a92ae2776fce05f39902ac96cb04d2fe661eb688f4a72ab069cff600080a2005b60405162461bcd60e51b815260206004820152602960248201527f424b433a205265776172644d616e616765722063616e6e6f74206265207a65726044820152686f206164647265737360b81b6064820152608490fd5b3461019057604036600319011261019057610931610aba565b60243590331561074d576001600160a01b031690811561073757336000526001602052604060002082600052602052806040600020556040519081527f8c5be1e5ebec7d5bd14f71427d1e84f3dd0314c0f7b2291e5b200ac8c7c3b92560203392a3602060405160018152f35b346101905760003660031901126101905760006003548060011c90600181168015610a67575b6020831081146104265782855290811561040a5750600114610a105750819003601f01601f191681019067ffffffffffffffff82118183101761039d5761039982918260405282610a71565b905060036000527fc2575a0e9e593c00f959f8c92f12db2869c3395a3b0502d05e2516446f71f85b6000905b828210610a5157506020915082010182610369565b6001816020925483858801015201910190610a3c565b91607f16916109c4565b91909160208152825180602083015260005b818110610aa4575060409293506000838284010152601f8019910116010190565b8060208092870101516040828601015201610a83565b600435906001600160a01b038216820361019057565b602435906001600160a01b038216820361019057565b91908201809211610af357565b634e487b7160e01b600052601160045260246000fd5b6005546001600160a01b03163303610b1d57565b63118cdaa760e01b6000523360045260246000fd5b6001600160a01b0316908115610bcb576001600160a01b03169182156105f6576000828152806020526040812054828110610bb15791604082827fddf252ad1be2c89b69c2b068fc378daa952ba7f163c4a11628f55a4df523b3ef958760209652828652038282205586815280845220818154019055604051908152a3565b916064928463391434e360e21b8452600452602452604452fd5b634b637e8f60e11b600052600060045260246000fdfea264697066735822122081d376101dc3eae894f7264a2b66a0c10a0e1295a44b4ab2fae1715419f9b7ac64736f6c634300081c0033",
  "linkReferences": {},
  "deployedLinkReferences": {}
}