{
  "_format": "hh-sol-artifact-1",
  "contractName": "NFTLiquidityPool",
  "sourceName": "contracts/NFTLiquidityPool.sol",
  "abi": [
    {
      "inputs": [
        {
          "internalType": "address",
          "name": "_ecosystemManagerAddress",
          "type": "address"
        },
        {
          "internalType": "address",
          "name": "_initialOwner",
          "type": "address"
        }
      ],
      "stateMutability": "nonpayable",
      "type": "constructor"
    },
    {
      "inputs": [
        {
          "internalType": "address",
          "name": "owner",
          "type": "address"
        }
      ],
      "name": "OwnableInvalidOwner",
      "type": "error"
    },
    {
      "inputs": [
        {
          "internalType": "address",
          "name": "account",
          "type": "address"
        }
      ],
      "name": "OwnableUnauthorizedAccount",
      "type": "error"
    },
    {
      "inputs": [],
      "name": "ReentrancyGuardReentrantCall",
      "type": "error"
    },
    {
      "anonymous": false,
      "inputs": [
        {
          "indexed": true,
          "internalType": "uint256",
          "name": "boostBips",
          "type": "uint256"
        },
        {
          "indexed": false,
          "internalType": "uint256",
          "name": "nftAmount",
          "type": "uint256"
        },
        {
          "indexed": false,
          "internalType": "uint256",
          "name": "bkcAmount",
          "type": "uint256"
        }
      ],
      "name": "LiquidityAdded",
      "type": "event"
    },
    {
      "anonymous": false,
      "inputs": [
        {
          "indexed": true,
          "internalType": "address",
          "name": "buyer",
          "type": "address"
        },
        {
          "indexed": true,
          "internalType": "uint256",
          "name": "boostBips",
          "type": "uint256"
        },
        {
          "indexed": false,
          "internalType": "uint256",
          "name": "tokenId",
          "type": "uint256"
        },
        {
          "indexed": false,
          "internalType": "uint256",
          "name": "price",
          "type": "uint256"
        }
      ],
      "name": "NFTBought",
      "type": "event"
    },
    {
      "anonymous": false,
      "inputs": [
        {
          "indexed": true,
          "internalType": "address",
          "name": "seller",
          "type": "address"
        },
        {
          "indexed": true,
          "internalType": "uint256",
          "name": "boostBips",
          "type": "uint256"
        },
        {
          "indexed": false,
          "internalType": "uint256",
          "name": "tokenId",
          "type": "uint256"
        },
        {
          "indexed": false,
          "internalType": "uint256",
          "name": "payout",
          "type": "uint256"
        },
        {
          "indexed": false,
          "internalType": "uint256",
          "name": "taxPaid",
          "type": "uint256"
        }
      ],
      "name": "NFTSold",
      "type": "event"
    },
    {
      "anonymous": false,
      "inputs": [
        {
          "indexed": true,
          "internalType": "uint256",
          "name": "boostBips",
          "type": "uint256"
        },
        {
          "indexed": false,
          "internalType": "uint256",
          "name": "nftAmount",
          "type": "uint256"
        }
      ],
      "name": "NFTsAddedToPool",
      "type": "event"
    },
    {
      "anonymous": false,
      "inputs": [
        {
          "indexed": true,
          "internalType": "address",
          "name": "previousOwner",
          "type": "address"
        },
        {
          "indexed": true,
          "internalType": "address",
          "name": "newOwner",
          "type": "address"
        }
      ],
      "name": "OwnershipTransferred",
      "type": "event"
    },
    {
      "anonymous": false,
      "inputs": [
        {
          "indexed": true,
          "internalType": "uint256",
          "name": "boostBips",
          "type": "uint256"
        }
      ],
      "name": "PoolCreated",
      "type": "event"
    },
    {
      "inputs": [],
      "name": "PSTAKE_SERVICE_KEY",
      "outputs": [
        {
          "internalType": "string",
          "name": "",
          "type": "string"
        }
      ],
      "stateMutability": "view",
      "type": "function"
    },
    {
      "inputs": [],
      "name": "TAX_BIPS_KEY",
      "outputs": [
        {
          "internalType": "string",
          "name": "",
          "type": "string"
        }
      ],
      "stateMutability": "view",
      "type": "function"
    },
    {
      "inputs": [],
      "name": "TAX_DELEGATOR_SHARE_KEY",
      "outputs": [
        {
          "internalType": "string",
          "name": "",
          "type": "string"
        }
      ],
      "stateMutability": "view",
      "type": "function"
    },
    {
      "inputs": [],
      "name": "TAX_LIQUIDITY_SHARE_KEY",
      "outputs": [
        {
          "internalType": "string",
          "name": "",
          "type": "string"
        }
      ],
      "stateMutability": "view",
      "type": "function"
    },
    {
      "inputs": [],
      "name": "TAX_TREASURY_SHARE_KEY",
      "outputs": [
        {
          "internalType": "string",
          "name": "",
          "type": "string"
        }
      ],
      "stateMutability": "view",
      "type": "function"
    },
    {
      "inputs": [
        {
          "internalType": "uint256",
          "name": "_boostBips",
          "type": "uint256"
        },
        {
          "internalType": "uint256[]",
          "name": "_tokenIds",
          "type": "uint256[]"
        },
        {
          "internalType": "uint256",
          "name": "_bkcAmount",
          "type": "uint256"
        }
      ],
      "name": "addInitialLiquidity",
      "outputs": [],
      "stateMutability": "nonpayable",
      "type": "function"
    },
    {
      "inputs": [
        {
          "internalType": "uint256",
          "name": "_boostBips",
          "type": "uint256"
        },
        {
          "internalType": "uint256[]",
          "name": "_tokenIds",
          "type": "uint256[]"
        }
      ],
      "name": "addMoreNFTsToPool",
      "outputs": [],
      "stateMutability": "nonpayable",
      "type": "function"
    },
    {
      "inputs": [],
      "name": "bkcToken",
      "outputs": [
        {
          "internalType": "contract BKCToken",
          "name": "",
          "type": "address"
        }
      ],
      "stateMutability": "view",
      "type": "function"
    },
    {
      "inputs": [
        {
          "internalType": "uint256",
          "name": "_boostBips",
          "type": "uint256"
        },
        {
          "internalType": "uint256",
          "name": "_tokenId",
          "type": "uint256"
        },
        {
          "internalType": "uint256",
          "name": "_boosterTokenId",
          "type": "uint256"
        }
      ],
      "name": "buyNFT",
      "outputs": [],
      "stateMutability": "nonpayable",
      "type": "function"
    },
    {
      "inputs": [
        {
          "internalType": "uint256",
          "name": "_boostBips",
          "type": "uint256"
        }
      ],
      "name": "createPool",
      "outputs": [],
      "stateMutability": "nonpayable",
      "type": "function"
    },
    {
      "inputs": [],
      "name": "ecosystemManager",
      "outputs": [
        {
          "internalType": "contract IEcosystemManager",
          "name": "",
          "type": "address"
        }
      ],
      "stateMutability": "view",
      "type": "function"
    },
    {
      "inputs": [
        {
          "internalType": "uint256",
          "name": "_boostBips",
          "type": "uint256"
        }
      ],
      "name": "getBuyPrice",
      "outputs": [
        {
          "internalType": "uint256",
          "name": "",
          "type": "uint256"
        }
      ],
      "stateMutability": "view",
      "type": "function"
    },
    {
      "inputs": [
        {
          "internalType": "uint256",
          "name": "_boostBips",
          "type": "uint256"
        }
      ],
      "name": "getPoolInfo",
      "outputs": [
        {
          "components": [
            {
              "internalType": "uint256",
              "name": "tokenBalance",
              "type": "uint256"
            },
            {
              "internalType": "uint256",
              "name": "nftCount",
              "type": "uint256"
            },
            {
              "internalType": "uint256",
              "name": "k",
              "type": "uint256"
            },
            {
              "internalType": "bool",
              "name": "isInitialized",
              "type": "bool"
            }
          ],
          "internalType": "struct NFTLiquidityPool.Pool",
          "name": "",
          "type": "tuple"
        }
      ],
      "stateMutability": "view",
      "type": "function"
    },
    {
      "inputs": [
        {
          "internalType": "uint256",
          "name": "_boostBips",
          "type": "uint256"
        }
      ],
      "name": "getSellPrice",
      "outputs": [
        {
          "internalType": "uint256",
          "name": "",
          "type": "uint256"
        }
      ],
      "stateMutability": "view",
      "type": "function"
    },
    {
      "inputs": [
        {
          "internalType": "address",
          "name": "",
          "type": "address"
        },
        {
          "internalType": "address",
          "name": "",
          "type": "address"
        },
        {
          "internalType": "uint256",
          "name": "",
          "type": "uint256"
        },
        {
          "internalType": "bytes",
          "name": "",
          "type": "bytes"
        }
      ],
      "name": "onERC721Received",
      "outputs": [
        {
          "internalType": "bytes4",
          "name": "",
          "type": "bytes4"
        }
      ],
      "stateMutability": "nonpayable",
      "type": "function"
    },
    {
      "inputs": [],
      "name": "owner",
      "outputs": [
        {
          "internalType": "address",
          "name": "",
          "type": "address"
        }
      ],
      "stateMutability": "view",
      "type": "function"
    },
    {
      "inputs": [
        {
          "internalType": "uint256",
          "name": "",
          "type": "uint256"
        }
      ],
      "name": "pools",
      "outputs": [
        {
          "internalType": "uint256",
          "name": "tokenBalance",
          "type": "uint256"
        },
        {
          "internalType": "uint256",
          "name": "nftCount",
          "type": "uint256"
        },
        {
          "internalType": "uint256",
          "name": "k",
          "type": "uint256"
        },
        {
          "internalType": "bool",
          "name": "isInitialized",
          "type": "bool"
        }
      ],
      "stateMutability": "view",
      "type": "function"
    },
    {
      "inputs": [],
      "name": "renounceOwnership",
      "outputs": [],
      "stateMutability": "nonpayable",
      "type": "function"
    },
    {
      "inputs": [
        {
          "internalType": "uint256",
          "name": "_tokenId",
          "type": "uint256"
        },
        {
          "internalType": "uint256",
          "name": "_boosterTokenId",
          "type": "uint256"
        }
      ],
      "name": "sellNFT",
      "outputs": [],
      "stateMutability": "nonpayable",
      "type": "function"
    },
    {
      "inputs": [
        {
          "internalType": "address",
          "name": "newOwner",
          "type": "address"
        }
      ],
      "name": "transferOwnership",
      "outputs": [],
      "stateMutability": "nonpayable",
      "type": "function"
    }
  ],
  "bytecode": "0x60c080604052346101c65760408161244e803803809161001f8285610237565b8339810103126101c65761003281610270565b906001600160a01b039061004890602001610270565b1690811561022157600080546001600160a01b031981168417825560405193916001600160a01b03909116907f8be0079c531659141344cd1fd0a4f28419497f9722a3daafe3b4186f6b6457e09080a3600180556001600160a01b03169081156101df5760808290526040516377e9ba6560e11b8152602081600481865afa9081156101d357600091610194575b506001600160a01b031680156101505760a0526040516121c9908161028582396080518181816101a3015281816107030152818161097d01528181610cd001528181610d8f0152611d4e015260a05181818161031701528181610a3f015281816110d90152818161174701528181611eb80152611f8b0152f35b606460405162461bcd60e51b815260206004820152602060248201527f4e4c503a20546f6b656e206e6f7420636f6e6669677572656420696e204875626044820152fd5b90506020813d6020116101cb575b816101af60209383610237565b810103126101c6576101c090610270565b816100d6565b600080fd5b3d91506101a2565b6040513d6000823e3d90fd5b62461bcd60e51b815260206004820152601760248201527f4e4c503a204875622063616e6e6f74206265207a65726f0000000000000000006044820152606490fd5b631e4fbdf760e01b600052600060045260246000fd5b601f909101601f19168101906001600160401b0382119082101761025a57604052565b634e487b7160e01b600052604160045260246000fd5b51906001600160a01b03821682036101c65756fe6080604052600436101561001257600080fd5b6000803560e01c806308d4db1414611841578063150b7a021461179257806315aa789e146117765780632402ff97146117315780632f380b351461169a5780634f84cf211461167e57806370026e5014611662578063715018a6146116085780638259e6a01461154e5780638da5cb5b1461152757806391a48a1e14610d6d578063a862398714610d51578063ac4afa3814610cff578063af6725b914610cba578063ba730e5314610c93578063c9e7051314610c5f578063df999c471461091e578063e07bd266146106a8578063e4b70b42146101815763f2fde38b146100f957600080fd5b3461017e57602036600319011261017e57610112611860565b61011a611ceb565b6001600160a01b0316801561016a5781546001600160a01b03198116821783556001600160a01b03167f8be0079c531659141344cd1fd0a4f28419497f9722a3daafe3b4186f6b6457e08380a380f35b631e4fbdf760e01b82526004829052602482fd5b80fd5b503461017e57606036600319011261017e576004356024356101a1611d14565b7f00000000000000000000000000000000000000000000000000000000000000006001600160a01b03166101f860206101d861195c565b6040518093819263ae85d01960e01b835260443590339060048501611b37565b0381855afa90811561069d57859161066b575b5061061a5760206004916040519283809263060837d160e21b82525afa90811561060f5784916105f0575b506001600160a01b031661024b811515611b82565b8284526002602052604084209060ff600383015416806105e3575b15610592576040516331a9108f60e11b815260048101849052602081602481855afa908115610507578691610563575b50306001600160a01b03909116036105125760405163070922e560e51b815260048101849052602081602481855afa801561050757859187916104cd575b5003610488576102e384611ab6565b6040516323b872dd60e01b8152336004820152306024820152604481018290529092906020816064818a6001600160a01b037f0000000000000000000000000000000000000000000000000000000000000000165af1801561047d5761035091889161044e575b50611c9f565b61035b838254611c04565b80825560018201908154801561043a576000190191829055879392919081610428575050600283915b0155803b1561042457604051632142170760e11b8152306004820152336024820152604481018590529082908290606490829084905af1801561041957610400575b505060405191825260208201527f8c68226ed6c7256cb4dc9d9d1d0d84141ffb9ff4cac6ca9fa08dc46ad0a0893660403392a36001805580f35b8161040a916118be565b6104155783386103c6565b8380fd5b6040513d84823e3d90fd5b5080fd5b60029161043491611bd9565b91610384565b634e487b7160e01b89526011600452602489fd5b610470915060203d602011610476575b61046881836118be565b810190611bec565b3861034a565b503d61045e565b6040513d89823e3d90fd5b60405162461bcd60e51b815260206004820152601860248201527f4e4c503a20546f6b656e2074696572206d69736d6174636800000000000000006044820152606490fd5b9150506020813d6020116104ff575b816104e9602093836118be565b810103126104fa57849051386102d4565b600080fd5b3d91506104dc565b6040513d88823e3d90fd5b60405162461bcd60e51b815260206004820152602360248201527f4e4c503a20436f6e747261637420646f6573206e6f74206f776e20746869732060448201526213919560ea1b6064820152608490fd5b610585915060203d60201161058b575b61057d81836118be565b810190611b63565b38610296565b503d610573565b60405162461bcd60e51b815260206004820152602360248201527f4e4c503a204e6f204e46547320617661696c61626c6520696e207468697320706044820152621bdbdb60ea1b6064820152608490fd5b5060018201541515610266565b610609915060203d60201161058b5761057d81836118be565b38610236565b6040513d86823e3d90fd5b60405162461bcd60e51b815260206004820152602360248201527f4e4c503a204275792073657276696365206665652073686f756c64206265207a60448201526265726f60e81b6064820152608490fd5b90506020813d602011610695575b81610686602093836118be565b810103126104fa57513861020b565b3d9150610679565b6040513d87823e3d90fd5b503461017e57604036600319011261017e5760043560243567ffffffffffffffff8111610843576106dd903690600401611a42565b906106e6611ceb565b6106ee611d14565b60405163060837d160e21b81526020816004817f00000000000000000000000000000000000000000000000000000000000000006001600160a01b03165afa90811561069d5785916108ff575b506001600160a01b031690610751821515611b82565b8385526002602052604085209160ff600384015416806108f2575b15610898578315610847578590815b8581106107d95782877f858a207c492e6a9b397e43da12be8cc88dc78945a357fbd7ac3593460ad1e4e46020898960026107c8600183016107bd858254611c04565b809155835490611bd9565b910155604051908152a26001805580f35b6107e4818786611c79565b35823b1561041557604051632142170760e11b81523360048201523060248201526044810191909152838160648183875af190811561060f57849161082e575b505060010161077b565b81610838916118be565b610843578238610824565b8280fd5b60405162461bcd60e51b8152602060048201526024808201527f4e4c503a20546f6b656e204944732061727261792063616e6e6f7420626520656044820152636d70747960e01b6064820152608490fd5b60405162461bcd60e51b815260206004820152602c60248201527f4e4c503a20506f6f6c206e6f7420696e697469616c697a65642077697468206c60448201526b1a5c5d5a591a5d1e481e595d60a21b6064820152608490fd5b506002830154151561076c565b610918915060203d60201161058b5761057d81836118be565b3861073b565b503461017e57606036600319011261017e5760043560243567ffffffffffffffff811161084357610953903690600401611a42565b9060443591610960611ceb565b610968611d14565b60405163060837d160e21b81526020816004817f00000000000000000000000000000000000000000000000000000000000000006001600160a01b03165afa908115610507578691610c40575b506001600160a01b0316926109cb841515611b82565b8486526002602052604086209260ff60038501541615610bfb5760018401948554610bb6578315610b71578215610b2c578790815b858110610ac25750506040516323b872dd60e01b81523360048201523060248201526044810184905294915060209050846064818a6001600160a01b037f0000000000000000000000000000000000000000000000000000000000000000165af1801561047d577fd7f28048575eead8851d024ead087913957dfb4fd1a02b4d1573f5352a5a2be395610a9d85926040978b9161044e5750611c9f565b558181556002610aad8385611bd9565b91015582519182526020820152a26001805580f35b610acd818786611c79565b35823b1561041557604051632142170760e11b81523360048201523060248201526044810191909152838160648183875af190811561060f578491610b17575b5050600101610a00565b81610b21916118be565b610843578238610b0d565b60405162461bcd60e51b815260206004820152601b60248201527f4e4c503a204d7573742061646420424b43206c697175696469747900000000006044820152606490fd5b60405162461bcd60e51b815260206004820152601e60248201527f4e4c503a204d75737420616464206174206c65617374206f6e65204e465400006044820152606490fd5b60405162461bcd60e51b815260206004820152601c60248201527f4e4c503a204c697175696469747920616c7265616479206164646564000000006044820152606490fd5b60405162461bcd60e51b815260206004820152601960248201527f4e4c503a20506f6f6c206e6f7420696e697469616c697a6564000000000000006044820152606490fd5b610c59915060203d60201161058b5761057d81836118be565b386109b5565b503461017e578060031936011261017e57610c8f610c7b6119fd565b60405191829160208352602083019061191b565b0390f35b503461017e57602036600319011261017e576020610cb2600435611c11565b604051908152f35b503461017e578060031936011261017e576040517f00000000000000000000000000000000000000000000000000000000000000006001600160a01b03168152602090f35b503461017e57602036600319011261017e576040608091600435815260026020522080549060018101549060ff6003600283015492015416916040519384526020840152604083015215156060820152f35b503461017e578060031936011261017e57610c8f610c7b6119ce565b503461017e57604036600319011261017e57602435600435610d8d611d14565b7f00000000000000000000000000000000000000000000000000000000000000006001600160a01b031691610de3602082610dc661195c565b60405163ae85d01960e01b81529384928392339060048501611b37565b0381875afa90811561069d5785916114f1575b506114a05760405163060837d160e21b8152602081600481875afa90811561069d578591611481575b506001600160a01b0316610e34811515611b82565b6040516331a9108f60e11b815260048101849052602081602481855afa908115610507578691611462575b50336001600160a01b03909116036114285760405163070922e560e51b81526004810184905293602085602481855afa9485156105075786956113f0575b5084156113ab578486526002602052604086209060ff6003830154161561135757610ec786611c11565b938483541061130157610eff906020610ede6119ce565b60405180948192631da3ddcd60e31b8352846004840152602483019061191b565b0381865afa9182156111725789926112cd575b508890806111a3575b508082111561119557610f34610f3a9161271093611a73565b86611bd9565b0493610f468582611a73565b93803b1561119157604051632142170760e11b8152336004820152306024820152604481018890529089908290606490829084905af180156111725761117d575b50836110ae575b6020610fc592866110a0575b610fa2611989565b906040518080968194631da3ddcd60e31b8352866004840152602483019061191b565b03915afa91821561109557889261105f575b50610ff4612710610feb610ff99488611bd9565b04918454611a73565b611c04565b80825560018201908154600019811461043a579161101f91600160029401809255611bd9565b910155604051928352602083015260408201527f44bda66dab9320f5157fa343d54f000327d61b11c425ff01e2e871039e572d4b60603392a36001805580f35b91506020823d60201161108d575b8161107a602093836118be565b810103126104fa57905190610ff4610fd7565b3d915061106d565b6040513d8a823e3d90fd5b6110a987611d36565b610f9a565b60405163a9059cbb60e01b8152336004820152602481018590526020816044818c6001600160a01b037f0000000000000000000000000000000000000000000000000000000000000000165af1908115611172578991611153575b50610f8e5760405162461bcd60e51b815260206004820152601b60248201527f4e4c503a205061796f7574207472616e73666572206661696c656400000000006044820152606490fd5b61116c915060203d6020116104765761046881836118be565b38611109565b6040513d8b823e3d90fd5b8861118a919992996118be565b9638610f87565b8880fd5b5050612710610f3a88610f34565b6040516331a9108f60e11b8152600481018290526020816024818a5afa8b91816112ac575b506111d4575b50610f1b565b6001600160a01b031633146111ea575b806111ce565b90506040519063070922e560e51b82526004820152602081602481885afa90811561117257899161127a575b5060405190634af0f1dd60e11b82526004820152602081602481865afa908115611172578991611248575b50386111e4565b90506020813d602011611272575b81611263602093836118be565b81010312611191575138611241565b3d9150611256565b90506020813d6020116112a4575b81611295602093836118be565b81010312611191575138611216565b3d9150611288565b6112c691925060203d60201161058b5761057d81836118be565b90386111c8565b9091506020813d6020116112f9575b816112e9602093836118be565b8101031261119157519038610f12565b3d91506112dc565b60405162461bcd60e51b815260206004820152602860248201527f4e4c503a20506f6f6c2068617320696e73756666696369656e7420424b43206c604482015267697175696469747960c01b6064820152608490fd5b60405162461bcd60e51b815260206004820152602660248201527f4e4c503a20506f6f6c20646f6573206e6f7420657869737420666f722074686960448201526539903a34b2b960d11b6064820152608490fd5b60405162461bcd60e51b815260206004820152601c60248201527f4e4c503a204e6f7420612076616c696420426f6f73746572204e4654000000006044820152606490fd5b9094506020813d602011611420575b8161140c602093836118be565b8101031261141c57519338610e9d565b8580fd5b3d91506113ff565b60405162461bcd60e51b81526020600482015260126024820152712726281d102737ba103a34329037bbb732b960711b6044820152606490fd5b61147b915060203d60201161058b5761057d81836118be565b38610e5f565b61149a915060203d60201161058b5761057d81836118be565b38610e1f565b60405162461bcd60e51b8152602060048201526024808201527f4e4c503a2053656c6c2073657276696365206665652073686f756c64206265206044820152637a65726f60e01b6064820152608490fd5b90506020813d60201161151f575b8161150c602093836118be565b8101031261151b575138610df6565b8480fd5b3d91506114ff565b503461017e578060031936011261017e57546040516001600160a01b039091168152602090f35b503461017e57602036600319011261017e5760043561156b611ceb565b808252600260205260ff6003604084200154166115c357808252600260205260408220600301805460ff191660011790557ffa88d81eaffbf548e3ffc6c6458827ce9906ad714060746b80909cdf8d1d7ef78280a280f35b60405162461bcd60e51b815260206004820152601860248201527f4e4c503a20506f6f6c20616c72656164792065786973747300000000000000006044820152606490fd5b503461017e578060031936011261017e57611621611ceb565b80546001600160a01b03198116825581906001600160a01b03167f8be0079c531659141344cd1fd0a4f28419497f9722a3daafe3b4186f6b6457e08280a380f35b503461017e578060031936011261017e57610c8f610c7b611989565b503461017e578060031936011261017e57610c8f610c7b61195c565b503461017e57602036600319011261017e57604081608092606083516116bf8161188c565b8281528260208201528285820152015260043581526002602052206040516116e68161188c565b815491828252600181015460208301908152606060ff600360028501549460408701958652015416930192151583526040519384525160208401525160408301525115156060820152f35b503461017e578060031936011261017e576040517f00000000000000000000000000000000000000000000000000000000000000006001600160a01b03168152602090f35b503461017e578060031936011261017e57610c8f610c7b6118e0565b503461017e57608036600319011261017e576117ac611860565b506117b5611876565b5060643567ffffffffffffffff8111610424573660238201121561042457806004013567ffffffffffffffff811161182d576040516117fe601f8301601f1916602001826118be565b8181523660248385010111610415578160246020940184830137010152604051630a85bd0160e11b8152602090f35b634e487b7160e01b83526041600452602483fd5b503461017e57602036600319011261017e576020610cb2600435611ab6565b600435906001600160a01b03821682036104fa57565b602435906001600160a01b03821682036104fa57565b6080810190811067ffffffffffffffff8211176118a857604052565b634e487b7160e01b600052604160045260246000fd5b90601f8019910116810190811067ffffffffffffffff8211176118a857604052565b604051906118ef6040836118be565b602082527f4e46545f504f4f4c5f5441585f54524541535552595f53484152455f424950536020830152565b919082519283825260005b848110611947575050826000602080949584010152601f8019910116010190565b80602080928401015182828601015201611926565b6040519061196b6040836118be565b600f82526e4e46545f504f4f4c5f41434345535360881b6020830152565b604051906119986060836118be565b60218252605360f81b6040837f4e46545f504f4f4c5f5441585f4c49515549444954595f53484152455f42495060208201520152565b604051906119dd6040836118be565b60118252704e46545f504f4f4c5f5441585f4249505360781b6020830152565b60405190611a0c6060836118be565b60218252605360f81b6040837f4e46545f504f4f4c5f5441585f44454c454741544f525f53484152455f42495060208201520152565b9181601f840112156104fa5782359167ffffffffffffffff83116104fa576020808501948460051b0101116104fa57565b91908203918211611a8057565b634e487b7160e01b600052601160045260246000fd5b8115611aa0570490565b634e487b7160e01b600052601260045260246000fd5b6000526002602052604060002060ff600382015416158015611b2b575b611b245760018101546001811115611b1c576002820154906000198101908111611a8057611b0091611a96565b9054808210611b1557611b1291611a73565b90565b5050600090565b505060001990565b5060001990565b50600181015415611ad3565b611b4f6040929594939560608352606083019061191b565b6001600160a01b0390951660208201520152565b908160209103126104fa57516001600160a01b03811681036104fa5790565b15611b8957565b60405162461bcd60e51b815260206004820152602260248201527f4e4c503a20426f6f73746572206e6f7420636f6e6669677572656420696e20486044820152613ab160f11b6064820152608490fd5b81810292918115918404141715611a8057565b908160209103126104fa575180151581036104fa5790565b91908201809211611a8057565b6000526002602052604060002060ff600382015416158015611c6a575b611c64576002810154600182015460018101809111611a8057611c5091611a96565b90549080821115611b1557611b1291611a73565b50600090565b50600181015460001914611c2e565b9190811015611c895760051b0190565b634e487b7160e01b600052603260045260246000fd5b15611ca657565b60405162461bcd60e51b815260206004820152601860248201527f4e4c503a20424b43207472616e73666572206661696c656400000000000000006044820152606490fd5b6000546001600160a01b03163303611cff57565b63118cdaa760e01b6000523360045260246000fd5b600260015414611d25576002600155565b633ee5aeb560e01b60005260046000fd5b600090801561218f57604051633800918160e21b81527f00000000000000000000000000000000000000000000000000000000000000006001600160a01b03169190602081600481865afa90811561060f578491612170575b5060405163253006b160e01b815291602083600481875afa92831561069d57859361214f575b506001600160a01b038216156120fe576001600160a01b0383169384156120a357611de4906020610ede6118e0565b0381845afa91821561047d57879261206e575b50906020611e2c949392611e096119fd565b906040518080988194631da3ddcd60e31b8352866004840152602483019061191b565b03915afa93841561047d578794612034575b5081611e6d61271080611e5a611e7295611e649a999897611bd9565b0497889684611bd9565b04968792611a73565b611a73565b5081611f59575b505081611e87575b50505050565b60405163095ea7b360e01b81526001600160a01b0390911660048201526024810182905260208180604481010381877f00000000000000000000000000000000000000000000000000000000000000006001600160a01b03165af1801561060f57611f3c575b50813b1561084357829160448392604051948593849263bdd071fb60e01b845282600485015260248401525af1801561041957611f2c575b8080611e81565b81611f36916118be565b38611f25565b611f549060203d6020116104765761046881836118be565b611eed565b60405163a9059cbb60e01b81526001600160a01b039091166004820152602481019190915260208180604481010381887f00000000000000000000000000000000000000000000000000000000000000006001600160a01b03165af190811561069d578591612015575b5015611fd0573880611e79565b60405162461bcd60e51b815260206004820152601b60248201527f4e4c503a2054617820746f205472656173757279206661696c656400000000006044820152606490fd5b61202e915060203d6020116104765761046881836118be565b38611fc3565b9093506020813d602011612066575b81612050602093836118be565b81010312612062575192611e72611e3e565b8680fd5b3d9150612043565b9091506020813d60201161209b575b8161208a602093836118be565b810103126120625751906020611df7565b3d915061207d565b60405162461bcd60e51b815260206004820152602d60248201527f4e4c503a2044656c65676174696f6e204d616e61676572206e6f7420636f6e6660448201526c34b3bab932b21034b710243ab160991b6064820152608490fd5b60405162461bcd60e51b815260206004820152602360248201527f4e4c503a205472656173757279206e6f7420636f6e6669677572656420696e20604482015262243ab160e91b6064820152608490fd5b61216991935060203d60201161058b5761057d81836118be565b9138611db5565b612189915060203d60201161058b5761057d81836118be565b38611d8f565b505056fea264697066735822122030c3c74849636bc93c6ce62502dc75ea4cbcbd2059453a374ef0720cd8196f7d64736f6c634300081c0033",
  "linkReferences": {},
  "deployedLinkReferences": {}
}