{
  "_format": "hh-sol-artifact-1",
  "contractName": "PublicSale",
  "sourceName": "contracts/PublicSale.sol",
  "abi": [
    {
      "inputs": [
        {
          "internalType": "address",
          "name": "_rewardBoosterAddress",
          "type": "address"
        },
        {
          "internalType": "address",
          "name": "_ecosystemManagerAddress",
          "type": "address"
        },
        {
          "internalType": "address",
          "name": "_initialOwner",
          "type": "address"
        }
      ],
      "stateMutability": "nonpayable",
      "type": "constructor"
    },
    {
      "inputs": [
        {
          "internalType": "address",
          "name": "owner",
          "type": "address"
        }
      ],
      "name": "OwnableInvalidOwner",
      "type": "error"
    },
    {
      "inputs": [
        {
          "internalType": "address",
          "name": "account",
          "type": "address"
        }
      ],
      "name": "OwnableUnauthorizedAccount",
      "type": "error"
    },
    {
      "anonymous": false,
      "inputs": [
        {
          "indexed": true,
          "internalType": "address",
          "name": "buyer",
          "type": "address"
        },
        {
          "indexed": true,
          "internalType": "uint256",
          "name": "tierId",
          "type": "uint256"
        },
        {
          "indexed": true,
          "internalType": "uint256",
          "name": "tokenId",
          "type": "uint256"
        },
        {
          "indexed": false,
          "internalType": "uint256",
          "name": "price",
          "type": "uint256"
        }
      ],
      "name": "NFTSold",
      "type": "event"
    },
    {
      "anonymous": false,
      "inputs": [
        {
          "indexed": true,
          "internalType": "address",
          "name": "previousOwner",
          "type": "address"
        },
        {
          "indexed": true,
          "internalType": "address",
          "name": "newOwner",
          "type": "address"
        }
      ],
      "name": "OwnershipTransferred",
      "type": "event"
    },
    {
      "anonymous": false,
      "inputs": [
        {
          "indexed": true,
          "internalType": "uint256",
          "name": "tierId",
          "type": "uint256"
        },
        {
          "indexed": false,
          "internalType": "uint256",
          "name": "price",
          "type": "uint256"
        },
        {
          "indexed": false,
          "internalType": "uint256",
          "name": "maxSupply",
          "type": "uint256"
        }
      ],
      "name": "TierSet",
      "type": "event"
    },
    {
      "inputs": [
        {
          "internalType": "uint256",
          "name": "_tierId",
          "type": "uint256"
        },
        {
          "internalType": "uint256",
          "name": "_quantity",
          "type": "uint256"
        }
      ],
      "name": "buyMultipleNFTs",
      "outputs": [],
      "stateMutability": "payable",
      "type": "function"
    },
    {
      "inputs": [
        {
          "internalType": "uint256",
          "name": "_tierId",
          "type": "uint256"
        }
      ],
      "name": "buyNFT",
      "outputs": [],
      "stateMutability": "payable",
      "type": "function"
    },
    {
      "inputs": [],
      "name": "ecosystemManager",
      "outputs": [
        {
          "internalType": "contract IEcosystemManager",
          "name": "",
          "type": "address"
        }
      ],
      "stateMutability": "view",
      "type": "function"
    },
    {
      "inputs": [],
      "name": "owner",
      "outputs": [
        {
          "internalType": "address",
          "name": "",
          "type": "address"
        }
      ],
      "stateMutability": "view",
      "type": "function"
    },
    {
      "inputs": [],
      "name": "renounceOwnership",
      "outputs": [],
      "stateMutability": "nonpayable",
      "type": "function"
    },
    {
      "inputs": [],
      "name": "rewardBoosterNFT",
      "outputs": [
        {
          "internalType": "contract IRewardBoosterNFT",
          "name": "",
          "type": "address"
        }
      ],
      "stateMutability": "view",
      "type": "function"
    },
    {
      "inputs": [
        {
          "internalType": "uint256",
          "name": "_tierId",
          "type": "uint256"
        },
        {
          "internalType": "uint256",
          "name": "_priceInWei",
          "type": "uint256"
        },
        {
          "internalType": "uint256",
          "name": "_maxSupply",
          "type": "uint256"
        },
        {
          "internalType": "uint256",
          "name": "_boostBips",
          "type": "uint256"
        },
        {
          "internalType": "string",
          "name": "_metadataFile",
          "type": "string"
        }
      ],
      "name": "setTier",
      "outputs": [],
      "stateMutability": "nonpayable",
      "type": "function"
    },
    {
      "inputs": [
        {
          "internalType": "uint256",
          "name": "",
          "type": "uint256"
        }
      ],
      "name": "tiers",
      "outputs": [
        {
          "internalType": "uint256",
          "name": "priceInWei",
          "type": "uint256"
        },
        {
          "internalType": "uint256",
          "name": "maxSupply",
          "type": "uint256"
        },
        {
          "internalType": "uint256",
          "name": "mintedCount",
          "type": "uint256"
        },
        {
          "internalType": "uint256",
          "name": "boostBips",
          "type": "uint256"
        },
        {
          "internalType": "string",
          "name": "metadataFile",
          "type": "string"
        },
        {
          "internalType": "bool",
          "name": "isConfigured",
          "type": "bool"
        }
      ],
      "stateMutability": "view",
      "type": "function"
    },
    {
      "inputs": [
        {
          "internalType": "address",
          "name": "newOwner",
          "type": "address"
        }
      ],
      "name": "transferOwnership",
      "outputs": [],
      "stateMutability": "nonpayable",
      "type": "function"
    },
    {
      "inputs": [],
      "name": "withdrawFunds",
      "outputs": [],
      "stateMutability": "nonpayable",
      "type": "function"
    }
  ],
  "bytecode": "0x60c0346101b257601f610eec38819003918201601f19168301916001600160401b038311848410176101b7578084926060946040528339810103126101b257610047816101cd565b90610054602082016101cd565b906001600160a01b039061006a906040016101cd565b1691821561019c57600080546001600160a01b031981168517825560405194916001600160a01b03909116907f8be0079c531659141344cd1fd0a4f28419497f9722a3daafe3b4186f6b6457e09080a36001600160a01b031691821561014f57506001600160a01b03169081156101165760805260a052604051610d0a90816101e2823960805181818160a3015281816104930152610769015260a051818181610372015261095b0152f35b60405162461bcd60e51b815260206004820152601160248201527029b0b6329d1024b73b30b634b210243ab160791b6044820152606490fd5b62461bcd60e51b815260206004820152602260248201527f53616c653a20496e76616c696420426f6f73746572204e465420436f6e74726160448201526118dd60f21b6064820152608490fd5b631e4fbdf760e01b600052600060045260246000fd5b600080fd5b634e487b7160e01b600052604160045260246000fd5b51906001600160a01b03821682036101b25756fe608080604052600436101561001357600080fd5b60003560e01c908163039af9eb14610aed5750806324600fc31461092d5780634977197a146106ed57806351ed828814610423578063715018a6146103ca5780638da5cb5b146103a1578063af6725b91461035c578063f2fde38b146102cf578063fd1a08ab146100d75763ffa5c81f1461008d57600080fd5b346100d25760003660031901126100d2576040517f00000000000000000000000000000000000000000000000000000000000000006001600160a01b03168152602090f35b600080fd5b346100d25760a03660031901126100d25760843560043560243560443567ffffffffffffffff84116100d257366023850112156100d257836004013567ffffffffffffffff81116100d25736602482870101116100d257610136610cab565b836000526001602052604060002090838255826001830155600060028301556064356003830155600482019060009661016f8354610c42565b601f811161028a575b508790601f83116001146101f75792826005937f834cc6b59b3cde68921a932284aba232def2a681a83c5c44f5d25e8f2ef4a283989693604098968c926101e9575b50508160011b916000199060031b1c19161790555b01805460ff1916600117905582519182526020820152a280f35b602492500101358b806101ba565b8389526020892091601f1984168a5b81811061026f5750937f834cc6b59b3cde68921a932284aba232def2a681a83c5c44f5d25e8f2ef4a28398969360409896936001938360059810610252575b505050811b0190556101cf565b0160240135600019600384901b60f8161c191690558b8080610245565b91936020600181926024888801013581550195019201610206565b83895260208920601f840160051c810191602085106102c5575b601f0160051c01905b8181106102ba5750610178565b8981556001016102ad565b90915081906102a4565b346100d25760203660031901126100d2576004356001600160a01b038116908190036100d2576102fd610cab565b801561034657600080546001600160a01b03198116831782556001600160a01b0316907f8be0079c531659141344cd1fd0a4f28419497f9722a3daafe3b4186f6b6457e09080a3005b631e4fbdf760e01b600052600060045260246000fd5b346100d25760003660031901126100d2576040517f00000000000000000000000000000000000000000000000000000000000000006001600160a01b03168152602090f35b346100d25760003660031901126100d2576000546040516001600160a01b039091168152602090f35b346100d25760003660031901126100d2576103e3610cab565b600080546001600160a01b0319811682556001600160a01b03167f8be0079c531659141344cd1fd0a4f28419497f9722a3daafe3b4186f6b6457e08280a3005b60203660031901126100d25760043580600052600160205260406000209060ff600583015416156106a85781548080046001148115171561064d57340361066357600282019182546001810180911161064d576001820154811161060857909255600091600381019160048201917f00000000000000000000000000000000000000000000000000000000000000006001600160a01b0316855b600181106104c9578680f35b85549060405191633b5d30e560e11b8352336004840152602483015260606044830152878287546104f981610c42565b908160648401526001811690816000146105e657506001146105a8575b508060209203818b875af1801561059d578890610567575b600192508585546040519081527f306b3d0468e32a4a4b287be94a0ff526c42c78f7fcc5387b40c45df6b588723560203392a4016104bd565b506020823d8211610595575b8161058060209383610c7c565b81010312610591576001915161052e565b8780fd5b3d9150610573565b6040513d8a823e3d90fd5b888b5260208b208b93508592505b8184106105cc5750509081016084019080610516565b8054608485880101526020909301928592506001016105b6565b602094506084915091839260ff191682840152151560051b8201019250610516565b60405162461bcd60e51b815260206004820152601c60248201527f53616c653a20536f6c64206f757420666f7220746869732074696572000000006044820152606490fd5b634e487b7160e01b600052601160045260246000fd5b60405162461bcd60e51b815260206004820152601960248201527f53616c653a20496e636f727265637420424e422076616c7565000000000000006044820152606490fd5b60405162461bcd60e51b815260206004820152601960248201527f53616c653a2054696572206e6f7420636f6e66696775726564000000000000006044820152606490fd5b60403660031901126100d25760243560043581156108e857806000526001602052604060002060ff600582015416156106a85780548381029080820485149015171561064d573403610663576002810180546107498582610c9e565b600184015410610608578461076091959495610c9e565b905560048101927f00000000000000000000000000000000000000000000000000000000000000006001600160a01b03166003830160005b8581106107a157005b815460405190633b5d30e560e11b825233600483015260248201526060604482015260008189546107d181610c42565b908160648401526001811690816000146108c65750600114610884575b508060209203816000885af190811561087857600091610843575b50906001918587546040519081527f306b3d0468e32a4a4b287be94a0ff526c42c78f7fcc5387b40c45df6b588723560203392a401610798565b906020823d8211610870575b8161085c60209383610c7c565b8101031261086d5750516001610809565b80fd5b3d915061084f565b6040513d6000823e3d90fd5b91505088600052816020600020916000925b8184106108ac57505090810160840190806107ee565b805460848587010152602090930192849250600101610896565b602094506084915091839260ff191682840152151560051b82010192506107ee565b60405162461bcd60e51b815260206004820152601a60248201527f53616c653a205175616e74697479206d757374206265203e20300000000000006044820152606490fd5b346100d25760003660031901126100d257610946610cab565b604051633800918160e21b81526020816004817f00000000000000000000000000000000000000000000000000000000000000006001600160a01b03165afa90811561087857600091610aa7575b506001600160a01b03811615610a56574790816109ad57005b600080809381935af13d15610a51573d67ffffffffffffffff8111610a3b57604051906109e4601f8201601f191660200183610c7c565b8152600060203d92013e5b156109f657005b60405162461bcd60e51b815260206004820152601b60248201527f53616c653a20424e42207769746864726177616c206661696c656400000000006044820152606490fd5b634e487b7160e01b600052604160045260246000fd5b6109ef565b60405162461bcd60e51b8152602060048201526024808201527f53616c653a205472656173757279206e6f7420636f6e6669677572656420696e60448201526310243ab160e11b6064820152608490fd5b6020813d602011610ae5575b81610ac060209383610c7c565b81010312610ae15751906001600160a01b038216820361086d575081610994565b5080fd5b3d9150610ab3565b346100d25760203660031901126100d257600435600052600160205260406000209081549160018101549060028101546003820154918460048201600090805490610b3782610c42565b8085529160018116908115610c195750600114610bd8575b505091610b6860059260ff949997999695960388610c7c565b01541691604051958694855260208501526040840152606083015260c060808301528251928360c084015260005b848110610bc05750509160e0926000848385010152151560a0830152601f80199101168101030190f35b602082820181015160e0888401015286945001610b96565b6000908152602081209092505b818310610bfd5750508101602001610b686005610b4f565b6020919350806001915483858c01015201910190918792610be5565b60ff1916602080870191909152921515600590811b86019093019350610b68929150610b4f9050565b90600182811c92168015610c72575b6020831014610c5c57565b634e487b7160e01b600052602260045260246000fd5b91607f1691610c51565b90601f8019910116810190811067ffffffffffffffff821117610a3b57604052565b9190820180921161064d57565b6000546001600160a01b03163303610cbf57565b63118cdaa760e01b6000523360045260246000fdfea2646970667358221220bc861e2546f65dbbd9aebf897215fed89f26621de5bcd30a5844778c178091e664736f6c634300081c0033",
  "linkReferences": {},
  "deployedLinkReferences": {}
}