{
  "_format": "hh-sol-artifact-1",
  "contractName": "RewardBoosterNFT",
  "sourceName": "contracts/RewardBoosterNFT.sol",
  "abi": [
    {
      "inputs": [
        {
          "internalType": "address",
          "name": "_initialOwner",
          "type": "address"
        }
      ],
      "stateMutability": "nonpayable",
      "type": "constructor"
    },
    {
      "inputs": [
        {
          "internalType": "address",
          "name": "sender",
          "type": "address"
        },
        {
          "internalType": "uint256",
          "name": "tokenId",
          "type": "uint256"
        },
        {
          "internalType": "address",
          "name": "owner",
          "type": "address"
        }
      ],
      "name": "ERC721IncorrectOwner",
      "type": "error"
    },
    {
      "inputs": [
        {
          "internalType": "address",
          "name": "operator",
          "type": "address"
        },
        {
          "internalType": "uint256",
          "name": "tokenId",
          "type": "uint256"
        }
      ],
      "name": "ERC721InsufficientApproval",
      "type": "error"
    },
    {
      "inputs": [
        {
          "internalType": "address",
          "name": "approver",
          "type": "address"
        }
      ],
      "name": "ERC721InvalidApprover",
      "type": "error"
    },
    {
      "inputs": [
        {
          "internalType": "address",
          "name": "operator",
          "type": "address"
        }
      ],
      "name": "ERC721InvalidOperator",
      "type": "error"
    },
    {
      "inputs": [
        {
          "internalType": "address",
          "name": "owner",
          "type": "address"
        }
      ],
      "name": "ERC721InvalidOwner",
      "type": "error"
    },
    {
      "inputs": [
        {
          "internalType": "address",
          "name": "receiver",
          "type": "address"
        }
      ],
      "name": "ERC721InvalidReceiver",
      "type": "error"
    },
    {
      "inputs": [
        {
          "internalType": "address",
          "name": "sender",
          "type": "address"
        }
      ],
      "name": "ERC721InvalidSender",
      "type": "error"
    },
    {
      "inputs": [
        {
          "internalType": "uint256",
          "name": "tokenId",
          "type": "uint256"
        }
      ],
      "name": "ERC721NonexistentToken",
      "type": "error"
    },
    {
      "inputs": [
        {
          "internalType": "address",
          "name": "owner",
          "type": "address"
        }
      ],
      "name": "OwnableInvalidOwner",
      "type": "error"
    },
    {
      "inputs": [
        {
          "internalType": "address",
          "name": "account",
          "type": "address"
        }
      ],
      "name": "OwnableUnauthorizedAccount",
      "type": "error"
    },
    {
      "anonymous": false,
      "inputs": [
        {
          "indexed": true,
          "internalType": "address",
          "name": "owner",
          "type": "address"
        },
        {
          "indexed": true,
          "internalType": "address",
          "name": "approved",
          "type": "address"
        },
        {
          "indexed": true,
          "internalType": "uint256",
          "name": "tokenId",
          "type": "uint256"
        }
      ],
      "name": "Approval",
      "type": "event"
    },
    {
      "anonymous": false,
      "inputs": [
        {
          "indexed": true,
          "internalType": "address",
          "name": "owner",
          "type": "address"
        },
        {
          "indexed": true,
          "internalType": "address",
          "name": "operator",
          "type": "address"
        },
        {
          "indexed": false,
          "internalType": "bool",
          "name": "approved",
          "type": "bool"
        }
      ],
      "name": "ApprovalForAll",
      "type": "event"
    },
    {
      "anonymous": false,
      "inputs": [
        {
          "indexed": true,
          "internalType": "uint256",
          "name": "tokenId",
          "type": "uint256"
        },
        {
          "indexed": true,
          "internalType": "address",
          "name": "owner",
          "type": "address"
        },
        {
          "indexed": false,
          "internalType": "uint256",
          "name": "boostInBips",
          "type": "uint256"
        }
      ],
      "name": "BoosterMinted",
      "type": "event"
    },
    {
      "anonymous": false,
      "inputs": [
        {
          "indexed": true,
          "internalType": "address",
          "name": "previousOwner",
          "type": "address"
        },
        {
          "indexed": true,
          "internalType": "address",
          "name": "newOwner",
          "type": "address"
        }
      ],
      "name": "OwnershipTransferred",
      "type": "event"
    },
    {
      "anonymous": false,
      "inputs": [
        {
          "indexed": true,
          "internalType": "address",
          "name": "saleContract",
          "type": "address"
        }
      ],
      "name": "SaleContractAddressSet",
      "type": "event"
    },
    {
      "anonymous": false,
      "inputs": [
        {
          "indexed": true,
          "internalType": "address",
          "name": "from",
          "type": "address"
        },
        {
          "indexed": true,
          "internalType": "address",
          "name": "to",
          "type": "address"
        },
        {
          "indexed": true,
          "internalType": "uint256",
          "name": "tokenId",
          "type": "uint256"
        }
      ],
      "name": "Transfer",
      "type": "event"
    },
    {
      "inputs": [
        {
          "internalType": "address",
          "name": "to",
          "type": "address"
        },
        {
          "internalType": "uint256",
          "name": "tokenId",
          "type": "uint256"
        }
      ],
      "name": "approve",
      "outputs": [],
      "stateMutability": "nonpayable",
      "type": "function"
    },
    {
      "inputs": [
        {
          "internalType": "address",
          "name": "owner",
          "type": "address"
        }
      ],
      "name": "balanceOf",
      "outputs": [
        {
          "internalType": "uint256",
          "name": "",
          "type": "uint256"
        }
      ],
      "stateMutability": "view",
      "type": "function"
    },
    {
      "inputs": [
        {
          "internalType": "address",
          "name": "from",
          "type": "address"
        },
        {
          "internalType": "address",
          "name": "to",
          "type": "address"
        },
        {
          "internalType": "uint256[]",
          "name": "tokenIds",
          "type": "uint256[]"
        }
      ],
      "name": "batchTransferFrom",
      "outputs": [],
      "stateMutability": "nonpayable",
      "type": "function"
    },
    {
      "inputs": [
        {
          "internalType": "uint256",
          "name": "",
          "type": "uint256"
        }
      ],
      "name": "boostBips",
      "outputs": [
        {
          "internalType": "uint256",
          "name": "",
          "type": "uint256"
        }
      ],
      "stateMutability": "view",
      "type": "function"
    },
    {
      "inputs": [
        {
          "internalType": "uint256",
          "name": "tokenId",
          "type": "uint256"
        }
      ],
      "name": "getApproved",
      "outputs": [
        {
          "internalType": "address",
          "name": "",
          "type": "address"
        }
      ],
      "stateMutability": "view",
      "type": "function"
    },
    {
      "inputs": [
        {
          "internalType": "address",
          "name": "user",
          "type": "address"
        }
      ],
      "name": "getHighestBoost",
      "outputs": [
        {
          "internalType": "uint256",
          "name": "",
          "type": "uint256"
        }
      ],
      "stateMutability": "view",
      "type": "function"
    },
    {
      "inputs": [
        {
          "internalType": "address",
          "name": "owner",
          "type": "address"
        },
        {
          "internalType": "address",
          "name": "operator",
          "type": "address"
        }
      ],
      "name": "isApprovedForAll",
      "outputs": [
        {
          "internalType": "bool",
          "name": "",
          "type": "bool"
        }
      ],
      "stateMutability": "view",
      "type": "function"
    },
    {
      "inputs": [
        {
          "internalType": "address",
          "name": "to",
          "type": "address"
        },
        {
          "internalType": "uint256",
          "name": "boostInBips",
          "type": "uint256"
        },
        {
          "internalType": "string",
          "name": "metadataFile",
          "type": "string"
        }
      ],
      "name": "mintFromSale",
      "outputs": [
        {
          "internalType": "uint256",
          "name": "",
          "type": "uint256"
        }
      ],
      "stateMutability": "nonpayable",
      "type": "function"
    },
    {
      "inputs": [],
      "name": "name",
      "outputs": [
        {
          "internalType": "string",
          "name": "",
          "type": "string"
        }
      ],
      "stateMutability": "view",
      "type": "function"
    },
    {
      "inputs": [],
      "name": "owner",
      "outputs": [
        {
          "internalType": "address",
          "name": "",
          "type": "address"
        }
      ],
      "stateMutability": "view",
      "type": "function"
    },
    {
      "inputs": [
        {
          "internalType": "address",
          "name": "to",
          "type": "address"
        },
        {
          "internalType": "uint256",
          "name": "quantity",
          "type": "uint256"
        },
        {
          "internalType": "uint256",
          "name": "boostInBips",
          "type": "uint256"
        },
        {
          "internalType": "string",
          "name": "metadataFile",
          "type": "string"
        }
      ],
      "name": "ownerMintBatch",
      "outputs": [],
      "stateMutability": "nonpayable",
      "type": "function"
    },
    {
      "inputs": [
        {
          "internalType": "uint256",
          "name": "tokenId",
          "type": "uint256"
        }
      ],
      "name": "ownerOf",
      "outputs": [
        {
          "internalType": "address",
          "name": "",
          "type": "address"
        }
      ],
      "stateMutability": "view",
      "type": "function"
    },
    {
      "inputs": [],
      "name": "renounceOwnership",
      "outputs": [],
      "stateMutability": "nonpayable",
      "type": "function"
    },
    {
      "inputs": [
        {
          "internalType": "address",
          "name": "from",
          "type": "address"
        },
        {
          "internalType": "address",
          "name": "to",
          "type": "address"
        },
        {
          "internalType": "uint256",
          "name": "tokenId",
          "type": "uint256"
        }
      ],
      "name": "safeTransferFrom",
      "outputs": [],
      "stateMutability": "nonpayable",
      "type": "function"
    },
    {
      "inputs": [
        {
          "internalType": "address",
          "name": "from",
          "type": "address"
        },
        {
          "internalType": "address",
          "name": "to",
          "type": "address"
        },
        {
          "internalType": "uint256",
          "name": "tokenId",
          "type": "uint256"
        },
        {
          "internalType": "bytes",
          "name": "data",
          "type": "bytes"
        }
      ],
      "name": "safeTransferFrom",
      "outputs": [],
      "stateMutability": "nonpayable",
      "type": "function"
    },
    {
      "inputs": [],
      "name": "saleContractAddress",
      "outputs": [
        {
          "internalType": "address",
          "name": "",
          "type": "address"
        }
      ],
      "stateMutability": "view",
      "type": "function"
    },
    {
      "inputs": [
        {
          "internalType": "address",
          "name": "operator",
          "type": "address"
        },
        {
          "internalType": "bool",
          "name": "approved",
          "type": "bool"
        }
      ],
      "name": "setApprovalForAll",
      "outputs": [],
      "stateMutability": "nonpayable",
      "type": "function"
    },
    {
      "inputs": [
        {
          "internalType": "string",
          "name": "newBaseURI",
          "type": "string"
        }
      ],
      "name": "setBaseURI",
      "outputs": [],
      "stateMutability": "nonpayable",
      "type": "function"
    },
    {
      "inputs": [
        {
          "internalType": "address",
          "name": "_saleAddress",
          "type": "address"
        }
      ],
      "name": "setSaleContractAddress",
      "outputs": [],
      "stateMutability": "nonpayable",
      "type": "function"
    },
    {
      "inputs": [
        {
          "internalType": "bytes4",
          "name": "interfaceId",
          "type": "bytes4"
        }
      ],
      "name": "supportsInterface",
      "outputs": [
        {
          "internalType": "bool",
          "name": "",
          "type": "bool"
        }
      ],
      "stateMutability": "view",
      "type": "function"
    },
    {
      "inputs": [],
      "name": "symbol",
      "outputs": [
        {
          "internalType": "string",
          "name": "",
          "type": "string"
        }
      ],
      "stateMutability": "view",
      "type": "function"
    },
    {
      "inputs": [
        {
          "internalType": "uint256",
          "name": "",
          "type": "uint256"
        }
      ],
      "name": "tokenMetadataFile",
      "outputs": [
        {
          "internalType": "string",
          "name": "",
          "type": "string"
        }
      ],
      "stateMutability": "view",
      "type": "function"
    },
    {
      "inputs": [
        {
          "internalType": "address",
          "name": "owner",
          "type": "address"
        },
        {
          "internalType": "uint256",
          "name": "index",
          "type": "uint256"
        }
      ],
      "name": "tokenOfOwnerByIndex",
      "outputs": [
        {
          "internalType": "uint256",
          "name": "",
          "type": "uint256"
        }
      ],
      "stateMutability": "view",
      "type": "function"
    },
    {
      "inputs": [
        {
          "internalType": "uint256",
          "name": "tokenId",
          "type": "uint256"
        }
      ],
      "name": "tokenURI",
      "outputs": [
        {
          "internalType": "string",
          "name": "",
          "type": "string"
        }
      ],
      "stateMutability": "view",
      "type": "function"
    },
    {
      "inputs": [
        {
          "internalType": "address",
          "name": "from",
          "type": "address"
        },
        {
          "internalType": "address",
          "name": "to",
          "type": "address"
        },
        {
          "internalType": "uint256",
          "name": "tokenId",
          "type": "uint256"
        }
      ],
      "name": "transferFrom",
      "outputs": [],
      "stateMutability": "nonpayable",
      "type": "function"
    },
    {
      "inputs": [
        {
          "internalType": "address",
          "name": "newOwner",
          "type": "address"
        }
      ],
      "name": "transferOwnership",
      "outputs": [],
      "stateMutability": "nonpayable",
      "type": "function"
    }
  ],
  "bytecode": "0x6080604052346103af57611cc56020813803918261001c816103b4565b9384928339810103126103af57516001600160a01b038116908190036103af5761004660406103b4565b90601882527f4261636b636861696e2052657761726420426f6f737465720000000000000000602083015261007b60406103b4565b60048152632125a1a160e11b602082015282519091906001600160401b0381116102ba57600054600181811c911680156103a5575b602082101461029a57601f8111610341575b506020601f82116001146102db57819293946000926102d0575b50508160011b916000199060031b1c1916176000555b81516001600160401b0381116102ba57600154600181811c911680156102b0575b602082101461029a57601f8111610235575b50602092601f82116001146101d057928192936000926101c5575b50508160011b916000199060031b1c1916176001555b80156101af57600680546001600160a01b03198116831790915560405191906001600160a01b03167f8be0079c531659141344cd1fd0a4f28419497f9722a3daafe3b4186f6b6457e0600080a36118eb90816103da8239f35b631e4fbdf760e01b600052600060045260246000fd5b015190503880610140565b601f198216936001600052806000209160005b86811061021d5750836001959610610204575b505050811b01600155610156565b015160001960f88460031b161c191690553880806101f6565b919260206001819286850151815501940192016101e3565b60016000527fb10e2d527612073b26eecdfd717e6a320cf44b4afac2b0732d9fcbe2b7fa0cf6601f830160051c81019160208410610290575b601f0160051c01905b8181106102845750610125565b60008155600101610277565b909150819061026e565b634e487b7160e01b600052602260045260246000fd5b90607f1690610113565b634e487b7160e01b600052604160045260246000fd5b0151905038806100dc565b601f1982169060008052806000209160005b81811061032957509583600195969710610310575b505050811b016000556100f2565b015160001960f88460031b161c19169055388080610302565b9192602060018192868b0151815501940192016102ed565b600080527f290decd9548b62a8d60345a988386fc84ba6bc95484008f6362f93160ef3e563601f830160051c8101916020841061039b575b601f0160051c01905b81811061038f57506100c2565b60008155600101610382565b9091508190610379565b90607f16906100b0565b600080fd5b6040519190601f01601f191682016001600160401b038111838210176102ba5760405256fe608080604052600436101561001357600080fd5b60003560e01c90816301ffc9a714610eae5750806306fdde0314610e09578063081812fc14610dcb578063095ea7b314610cdc57806323b872dd14610cc55780632f745c5914610c40578063321328f614610c1757806342842e0e14610c0057806355f804b314610a835780636352211e14610a5357806370a08231146109fd578063715018a6146109a057806376ba61ca146108e15780638da5cb5b146108b857806395d89b41146107eb578063a0cda139146107bf578063a22cb4651461071e578063b88d4fde14610689578063c82a808a146105e2578063c87b56dd14610447578063e1245ca01461041b578063e398e78e14610351578063e985e9c5146102f6578063f16f3ff714610259578063f2fde38b146101cf5763f3993d111461013d57600080fd5b346101ca5760603660031901126101ca57610156610f61565b61015e610f77565b9060443567ffffffffffffffff81116101ca57366023820112156101ca5780600401359167ffffffffffffffff83116101ca573660248460051b840101116101ca5760005b838110156101c8576001906101c260248260051b8601013587856112bd565b016101a3565b005b600080fd5b346101ca5760203660031901126101ca576101e8610f61565b6101f0611364565b6001600160a01b0316801561024357600680546001600160a01b0319811683179091556001600160a01b03167f8be0079c531659141344cd1fd0a4f28419497f9722a3daafe3b4186f6b6457e0600080a3005b631e4fbdf760e01b600052600060045260246000fd5b346101ca5760203660031901126101ca57610272610f61565b5060405162461bcd60e51b815260206004820152604f60248201527f52424e46543a204869676865737420626f6f7374206d7573742062652063616c60448201527f63756c61746564206f66662d636861696e206f7220726571756972657320455260648201526e219b9918a2b73ab6b2b930b136329760891b608482015260a490fd5b346101ca5760403660031901126101ca5761030f610f61565b610317610f77565b9060018060a01b0316600052600560205260406000209060018060a01b0316600052602052602060ff604060002054166040519015158152f35b346101ca5760803660031901126101ca5761036a610f61565b6024356044359160643567ffffffffffffffff81116101ca57610391903690600401610fc7565b9061039a611364565b83156103d6576103b46001600160a01b03841615156112e1565b60005b8481106103c057005b6001906103cf8484898861138d565b50016103b7565b60405162461bcd60e51b815260206004820152601b60248201527f52424e46543a205175616e74697479206d757374206265203e203000000000006044820152606490fd5b346101ca5760203660031901126101ca5760043560005260076020526020604060002054604051908152f35b346101ca5760203660031901126101ca576004356001600160a01b0361046c8261132d565b161561058d5760405160095460009261048482610ff5565b808452602084019260018116908115610572575060011461052b575b506104b08361052095038461102f565b60005260086020526104c56040600020611051565b9151908115610524576020829361050c936104e860405196879585870190610f19565b83016104fc82518093858085019101610f19565b010103601f19810183528261102f565b604051918291602083526020830190610f3c565b0390f35b505061050c565b600960009081529094506000805160206118968339815191525b85821061055c5750830160200193506104b06104a0565b6001816020925483858901015201910190610545565b60ff1916845250151560051b830160200193506104b06104a0565b60405162461bcd60e51b815260206004820152602760248201527f4552433732313a2055524920717565727920666f72206e6f6e6578697374656e6044820152663a103a37b5b2b760c91b6064820152608490fd5b346101ca5760203660031901126101ca576105fb610f61565b610603611364565b6001600160a01b0316801561064b57600b80546001600160a01b031916821790557fb087927fadb98226ac3009818a8215fec71c195c891f65881f37284109d45960600080a2005b60405162461bcd60e51b815260206004820152601660248201527552424e46543a20496e76616c6964206164647265737360501b6044820152606490fd5b346101ca5760803660031901126101ca576106a2610f61565b6106aa610f77565b906044356064359267ffffffffffffffff84116101ca57366023850112156101ca578360040135926106db846110f5565b936106e9604051958661102f565b80855236602482880101116101ca5760208160009260246101c899018389013786010152610718838383611111565b33611758565b346101ca5760403660031901126101ca57610737610f61565b602435908115158092036101ca576001600160a01b03169081156107aa57336000526005602052604060002082600052602052604060002060ff1981541660ff83161790556040519081527f17307eab39ab6107e8899845ad3d59bd9653f200f220920489ca2b5937696c3160203392a3005b50630b61174360e31b60005260045260246000fd5b346101ca5760203660031901126101ca57600435600052600860205261052061050c6040600020611051565b346101ca5760003660031901126101ca57604051600060015461080d81610ff5565b80845290600181169081156108945750600114610835575b6105208361050c8185038261102f565b600160009081527fb10e2d527612073b26eecdfd717e6a320cf44b4afac2b0732d9fcbe2b7fa0cf6939250905b80821061087a5750909150810160200161050c610825565b919260018160209254838588010152019101909291610862565b60ff191660208086019190915291151560051b8401909101915061050c9050610825565b346101ca5760003660031901126101ca576006546040516001600160a01b039091168152602090f35b346101ca5760603660031901126101ca576108fa610f61565b60443567ffffffffffffffff81116101ca5761091a903690600401610fc7565b600b549192916001600160a01b0316330361095b576020926109539261094a6001600160a01b03821615156112e1565b6024359061138d565b604051908152f35b60405162461bcd60e51b815260206004820152601c60248201527f52424e46543a2043616c6c6572206e6f7420617574686f72697a6564000000006044820152606490fd5b346101ca5760003660031901126101ca576109b9611364565b600680546001600160a01b031981169091556000906001600160a01b03167f8be0079c531659141344cd1fd0a4f28419497f9722a3daafe3b4186f6b6457e08280a3005b346101ca5760203660031901126101ca576001600160a01b03610a1e610f61565b168015610a3d5760005260036020526020604060002054604051908152f35b6322718ad960e21b600052600060045260246000fd5b346101ca5760203660031901126101ca576020610a7160043561132d565b6040516001600160a01b039091168152f35b346101ca5760203660031901126101ca5760043567ffffffffffffffff81116101ca57610ab4903690600401610fc7565b610abc611364565b67ffffffffffffffff8111610bea57610ad6600954610ff5565b601f8111610b82575b506000601f8211600114610b1b578192600092610b10575b5050600019600383901b1c191660019190911b17600955005b013590508280610af7565b601f1982169260008051602061189683398151915291805b858110610b6a57508360019510610b50575b505050811b01600955005b0135600019600384901b60f8161c19169055828080610b45565b90926020600181928686013581550194019101610b33565b601f820160051c600080516020611896833981519152019060208310610bd4575b601f0160051c60008051602061189683398151915201905b818110610bc85750610adf565b60008155600101610bbb565b6000805160206118968339815191529150610ba3565b634e487b7160e01b600052604160045260246000fd5b346101ca576101c8610c1136610f8d565b916112bd565b346101ca5760003660031901126101ca57600b546040516001600160a01b039091168152602090f35b346101ca5760403660031901126101ca57610c59610f61565b5060405162461bcd60e51b815260206004820152603760248201527f52424e46543a20456e756d65726174696f6e2066756e6374696f6e2072656d6f60448201527f76656420666f722067617320656666696369656e63792e0000000000000000006064820152608490fd5b346101ca576101c8610cd636610f8d565b91611111565b346101ca5760403660031901126101ca57610cf5610f61565b602435610d018161132d565b33151580610db8575b80610d8a575b610d755781906001600160a01b0384811691167f8c5be1e5ebec7d5bd14f71427d1e84f3dd0314c0f7b2291e5b200ac8c7c3b925600080a4600090815260046020526040902080546001600160a01b0319166001600160a01b03909216919091179055005b63a9fbf51f60e01b6000523360045260246000fd5b506001600160a01b038116600090815260056020908152604080832033845290915290205460ff1615610d10565b506001600160a01b038116331415610d0a565b346101ca5760203660031901126101ca57600435610de88161132d565b506000526004602052602060018060a01b0360406000205416604051908152f35b346101ca5760003660031901126101ca5760405160008054610e2a81610ff5565b80845290600181169081156108945750600114610e51576105208361050c8185038261102f565b60008080527f290decd9548b62a8d60345a988386fc84ba6bc95484008f6362f93160ef3e563939250905b808210610e945750909150810160200161050c610825565b919260018160209254838588010152019101909291610e7c565b346101ca5760203660031901126101ca576004359063ffffffff60e01b82168092036101ca576020916380ac58cd60e01b8114908115610f08575b8115610ef7575b5015158152f35b6301ffc9a760e01b14905083610ef0565b635b5e139f60e01b81149150610ee9565b60005b838110610f2c5750506000910152565b8181015183820152602001610f1c565b90602091610f5581518092818552858086019101610f19565b601f01601f1916010190565b600435906001600160a01b03821682036101ca57565b602435906001600160a01b03821682036101ca57565b60609060031901126101ca576004356001600160a01b03811681036101ca57906024356001600160a01b03811681036101ca579060443590565b9181601f840112156101ca5782359167ffffffffffffffff83116101ca57602083818601950101116101ca57565b90600182811c92168015611025575b602083101461100f57565b634e487b7160e01b600052602260045260246000fd5b91607f1691611004565b90601f8019910116810190811067ffffffffffffffff821117610bea57604052565b906040519182600082549261106584610ff5565b80845293600181169081156110d3575060011461108c575b5061108a9250038361102f565b565b90506000929192526020600020906000915b8183106110b757505090602061108a928201013861107d565b602091935080600191548385890101520191019091849261109e565b90506020925061108a94915060ff191682840152151560051b8201013861107d565b67ffffffffffffffff8111610bea57601f01601f191660200190565b6001600160a01b03909116919082156112a7576000828152600260205260408120546001600160a01b031693839185903315158061120f575b507fddf252ad1be2c89b69c2b068fc378daa952ba7f163c4a11628f55a4df523b3ef90826111da575b83815260036020526040812060018154019055848152600260205260408120846bffffffffffffffffffffffff60a01b82541617905580a46001600160a01b03168083036111c057505050565b6364283d7b60e01b60005260045260245260445260646000fd5b600085815260046020526040902080546001600160a01b03191690558281526003602052604081208054600019019055611173565b915091925080611258575b1561122957908484923861114a565b83908561124257602491637e27328960e01b8252600452fd5b60449163177e802f60e01b825233600452602452fd5b503385148015611286575b8061121a5750838152600460205260408120546001600160a01b0316331461121a565b5084815260056020908152604080832033845290915281205460ff16611263565b633250574960e11b600052600060045260246000fd5b909161108a92604051926112d260208561102f565b60008452610718838383611111565b156112e857565b60405162461bcd60e51b815260206004820152601b60248201527f52424e46543a204d696e7420746f207a65726f206164647265737300000000006044820152606490fd5b6000818152600260205260409020546001600160a01b0316908115611350575090565b637e27328960e01b60005260045260246000fd5b6006546001600160a01b0316330361137857565b63118cdaa760e01b6000523360045260246000fd5b600a549390929160001985146117425760018501600a556020906040516113b4838261102f565b600081526001600160a01b0386169586156112a75760008881526002855260018060a01b036040822054168989827fddf252ad1be2c89b69c2b068fc378daa952ba7f163c4a11628f55a4df523b3ef811515958661170e575b83815260038b5260408082208054600101905585825260028c52812080546001600160a01b0319168517905580a4506116f8573b6115cb575b508560005260078252806040600020558560005260088252604060002067ffffffffffffffff8411610bea57869361147e8254610ff5565b601f8111611574575b506000601f82116001146114ec5781907f54d5f2009309bfca693d4576a80122265f66467190efeb763d2fa2184189433296976000926114e1575b50508160011b916000199060031b1c19161790555b604051908152a390565b0135905038806114c2565b8281528481209690601f198316815b81811061155a5750917f54d5f2009309bfca693d4576a80122265f66467190efeb763d2fa21841894332979891846001959410611540575b505050811b0190556114d7565b0135600019600384901b60f8161c19169055388080611533565b838301358a556001909901988b98509187019187016114fb565b9091809394955060005284600020601f830160051c8101918684106115c1575b90601f8a9796959493920160051c01905b8181106115b25750611487565b600081558996506001016115a5565b9091508190611594565b8261160d91604099979998969594985180938192630a85bd0160e11b835233600484015260006024840152896044840152608060648401526084830190610f3c565b038160008c5af180916000916116b3575b50906116775787873d1561166f573d90611637826110f5565b91611645604051938461102f565b82523d60008284013e5b8151918261166c5783633250574960e11b60005260045260246000fd5b01fd5b60609061164f565b949693959394929391926001600160e01b03191663757a42ff60e11b0161169e5738611446565b84633250574960e11b60005260045260246000fd5b8881813d83116116f1575b6116c8818361102f565b810103126116ed5751906001600160e01b0319821682036116ea57503861161e565b80fd5b5080fd5b503d6116be565b6339e3563760e11b600052600060045260246000fd5b600085815260046020526040902080546001600160a01b031916905582815260038b5260408120805460001901905561140d565b634e487b7160e01b600052601160045260246000fd5b823b611766575b5050505050565b604051630a85bd0160e11b81526001600160a01b0391821660048201529181166024830152604482019390935260806064820152911691602090829081906117b2906084830190610f3c565b03816000865af18091600091611852575b509061181c57503d15611815573d6117da816110f5565b906117e8604051928361102f565b81523d6000602083013e5b805190816118105782633250574960e11b60005260045260246000fd5b602001fd5b60606117f3565b6001600160e01b03191663757a42ff60e11b0161183e5750388080808061175f565b633250574960e11b60005260045260246000fd5b6020813d60201161188d575b8161186b6020938361102f565b810103126116ed5751906001600160e01b0319821682036116ea5750386117c3565b3d915061185e56fe6e1540171b6c0c960b71a7020d9f60077f6af931a8bbf590da0223dacf75c7afa2646970667358221220d158aa18548eded72b910384d8943ef83fbc0a947091e1f69091052d6bed981864736f6c634300081c0033",
  "linkReferences": {},
  "deployedLinkReferences": {}
}