{
  "_format": "hh-sol-artifact-1",
  "contractName": "DelegationManager",
  "sourceName": "contracts/DelegationManager.sol",
  "abi": [
    {
      "inputs": [
        {
          "internalType": "address",
          "name": "_bkcTokenAddress",
          "type": "address"
        },
        {
          "internalType": "address",
          "name": "_ecosystemManagerAddress",
          "type": "address"
        },
        {
          "internalType": "address",
          "name": "_initialOwner",
          "type": "address"
        }
      ],
      "stateMutability": "nonpayable",
      "type": "constructor"
    },
    {
      "inputs": [
        {
          "internalType": "address",
          "name": "owner",
          "type": "address"
        }
      ],
      "name": "OwnableInvalidOwner",
      "type": "error"
    },
    {
      "inputs": [
        {
          "internalType": "address",
          "name": "account",
          "type": "address"
        }
      ],
      "name": "OwnableUnauthorizedAccount",
      "type": "error"
    },
    {
      "inputs": [],
      "name": "ReentrancyGuardReentrantCall",
      "type": "error"
    },
    {
      "anonymous": false,
      "inputs": [
        {
          "indexed": true,
          "internalType": "address",
          "name": "user",
          "type": "address"
        },
        {
          "indexed": true,
          "internalType": "address",
          "name": "validator",
          "type": "address"
        },
        {
          "indexed": false,
          "internalType": "uint256",
          "name": "delegationIndex",
          "type": "uint256"
        },
        {
          "indexed": false,
          "internalType": "uint256",
          "name": "amount",
          "type": "uint256"
        },
        {
          "indexed": false,
          "internalType": "uint256",
          "name": "feePaid",
          "type": "uint256"
        }
      ],
      "name": "Delegated",
      "type": "event"
    },
    {
      "anonymous": false,
      "inputs": [
        {
          "indexed": true,
          "internalType": "address",
          "name": "delegator",
          "type": "address"
        },
        {
          "indexed": false,
          "internalType": "uint256",
          "name": "amount",
          "type": "uint256"
        }
      ],
      "name": "DelegatorRewardClaimed",
      "type": "event"
    },
    {
      "anonymous": false,
      "inputs": [
        {
          "indexed": true,
          "internalType": "address",
          "name": "previousOwner",
          "type": "address"
        },
        {
          "indexed": true,
          "internalType": "address",
          "name": "newOwner",
          "type": "address"
        }
      ],
      "name": "OwnershipTransferred",
      "type": "event"
    },
    {
      "anonymous": false,
      "inputs": [
        {
          "indexed": true,
          "internalType": "address",
          "name": "from",
          "type": "address"
        },
        {
          "indexed": false,
          "internalType": "uint256",
          "name": "validatorAmount",
          "type": "uint256"
        },
        {
          "indexed": false,
          "internalType": "uint256",
          "name": "delegatorAmount",
          "type": "uint256"
        }
      ],
      "name": "RewardsDeposited",
      "type": "event"
    },
    {
      "anonymous": false,
      "inputs": [
        {
          "indexed": true,
          "internalType": "address",
          "name": "user",
          "type": "address"
        },
        {
          "indexed": false,
          "internalType": "uint256",
          "name": "delegationIndex",
          "type": "uint256"
        },
        {
          "indexed": false,
          "internalType": "uint256",
          "name": "amount",
          "type": "uint256"
        },
        {
          "indexed": false,
          "internalType": "uint256",
          "name": "feePaid",
          "type": "uint256"
        }
      ],
      "name": "Unstaked",
      "type": "event"
    },
    {
      "anonymous": false,
      "inputs": [
        {
          "indexed": true,
          "internalType": "address",
          "name": "validator",
          "type": "address"
        },
        {
          "indexed": false,
          "internalType": "uint256",
          "name": "selfStake",
          "type": "uint256"
        }
      ],
      "name": "ValidatorRegistered",
      "type": "event"
    },
    {
      "anonymous": false,
      "inputs": [
        {
          "indexed": true,
          "internalType": "address",
          "name": "validator",
          "type": "address"
        },
        {
          "indexed": false,
          "internalType": "uint256",
          "name": "amount",
          "type": "uint256"
        }
      ],
      "name": "ValidatorRewardClaimed",
      "type": "event"
    },
    {
      "inputs": [],
      "name": "DYNAMIC_STAKE_BIPS",
      "outputs": [
        {
          "internalType": "uint256",
          "name": "",
          "type": "uint256"
        }
      ],
      "stateMutability": "view",
      "type": "function"
    },
    {
      "inputs": [],
      "name": "MAX_LOCK_DURATION",
      "outputs": [
        {
          "internalType": "uint256",
          "name": "",
          "type": "uint256"
        }
      ],
      "stateMutability": "view",
      "type": "function"
    },
    {
      "inputs": [],
      "name": "MAX_SUPPLY",
      "outputs": [
        {
          "internalType": "uint256",
          "name": "",
          "type": "uint256"
        }
      ],
      "stateMutability": "view",
      "type": "function"
    },
    {
      "inputs": [],
      "name": "MINT_POOL",
      "outputs": [
        {
          "internalType": "uint256",
          "name": "",
          "type": "uint256"
        }
      ],
      "stateMutability": "view",
      "type": "function"
    },
    {
      "inputs": [],
      "name": "MIN_LOCK_DURATION",
      "outputs": [
        {
          "internalType": "uint256",
          "name": "",
          "type": "uint256"
        }
      ],
      "stateMutability": "view",
      "type": "function"
    },
    {
      "inputs": [],
      "name": "SAFETY_MARGIN_BIPS",
      "outputs": [
        {
          "internalType": "uint256",
          "name": "",
          "type": "uint256"
        }
      ],
      "stateMutability": "view",
      "type": "function"
    },
    {
      "inputs": [],
      "name": "TGE_SUPPLY",
      "outputs": [
        {
          "internalType": "uint256",
          "name": "",
          "type": "uint256"
        }
      ],
      "stateMutability": "view",
      "type": "function"
    },
    {
      "inputs": [],
      "name": "VALIDATOR_LOCK_DURATION",
      "outputs": [
        {
          "internalType": "uint256",
          "name": "",
          "type": "uint256"
        }
      ],
      "stateMutability": "view",
      "type": "function"
    },
    {
      "inputs": [],
      "name": "accDelegatorRewardPerStake",
      "outputs": [
        {
          "internalType": "uint256",
          "name": "",
          "type": "uint256"
        }
      ],
      "stateMutability": "view",
      "type": "function"
    },
    {
      "inputs": [],
      "name": "accValidatorRewardPerStake",
      "outputs": [
        {
          "internalType": "uint256",
          "name": "",
          "type": "uint256"
        }
      ],
      "stateMutability": "view",
      "type": "function"
    },
    {
      "inputs": [],
      "name": "bkcToken",
      "outputs": [
        {
          "internalType": "contract BKCToken",
          "name": "",
          "type": "address"
        }
      ],
      "stateMutability": "view",
      "type": "function"
    },
    {
      "inputs": [],
      "name": "claimDelegatorReward",
      "outputs": [],
      "stateMutability": "nonpayable",
      "type": "function"
    },
    {
      "inputs": [
        {
          "internalType": "address",
          "name": "_validatorAddress",
          "type": "address"
        },
        {
          "internalType": "uint256",
          "name": "_totalAmount",
          "type": "uint256"
        },
        {
          "internalType": "uint256",
          "name": "_lockDuration",
          "type": "uint256"
        }
      ],
      "name": "delegate",
      "outputs": [],
      "stateMutability": "nonpayable",
      "type": "function"
    },
    {
      "inputs": [
        {
          "internalType": "address",
          "name": "",
          "type": "address"
        }
      ],
      "name": "delegatorRewardDebt",
      "outputs": [
        {
          "internalType": "uint256",
          "name": "",
          "type": "uint256"
        }
      ],
      "stateMutability": "view",
      "type": "function"
    },
    {
      "inputs": [
        {
          "internalType": "uint256",
          "name": "_validatorAmount",
          "type": "uint256"
        },
        {
          "internalType": "uint256",
          "name": "_delegatorAmount",
          "type": "uint256"
        }
      ],
      "name": "depositRewards",
      "outputs": [],
      "stateMutability": "nonpayable",
      "type": "function"
    },
    {
      "inputs": [],
      "name": "ecosystemManager",
      "outputs": [
        {
          "internalType": "contract IEcosystemManager",
          "name": "",
          "type": "address"
        }
      ],
      "stateMutability": "view",
      "type": "function"
    },
    {
      "inputs": [
        {
          "internalType": "uint256",
          "name": "_delegationIndex",
          "type": "uint256"
        },
        {
          "internalType": "uint256",
          "name": "_boosterTokenId",
          "type": "uint256"
        }
      ],
      "name": "forceUnstake",
      "outputs": [],
      "stateMutability": "nonpayable",
      "type": "function"
    },
    {
      "inputs": [],
      "name": "getAllValidators",
      "outputs": [
        {
          "internalType": "address[]",
          "name": "",
          "type": "address[]"
        }
      ],
      "stateMutability": "view",
      "type": "function"
    },
    {
      "inputs": [
        {
          "internalType": "address",
          "name": "_user",
          "type": "address"
        }
      ],
      "name": "getDelegationsOf",
      "outputs": [
        {
          "components": [
            {
              "internalType": "uint256",
              "name": "amount",
              "type": "uint256"
            },
            {
              "internalType": "uint256",
              "name": "unlockTime",
              "type": "uint256"
            },
            {
              "internalType": "uint256",
              "name": "lockDuration",
              "type": "uint256"
            },
            {
              "internalType": "address",
              "name": "validator",
              "type": "address"
            }
          ],
          "internalType": "struct DelegationManager.Delegation[]",
          "name": "",
          "type": "tuple[]"
        }
      ],
      "stateMutability": "view",
      "type": "function"
    },
    {
      "inputs": [],
      "name": "getMinValidatorStake",
      "outputs": [
        {
          "internalType": "uint256",
          "name": "",
          "type": "uint256"
        }
      ],
      "stateMutability": "view",
      "type": "function"
    },
    {
      "inputs": [
        {
          "internalType": "address",
          "name": "",
          "type": "address"
        }
      ],
      "name": "hasPaidRegistrationFee",
      "outputs": [
        {
          "internalType": "bool",
          "name": "",
          "type": "bool"
        }
      ],
      "stateMutability": "view",
      "type": "function"
    },
    {
      "inputs": [],
      "name": "owner",
      "outputs": [
        {
          "internalType": "address",
          "name": "",
          "type": "address"
        }
      ],
      "stateMutability": "view",
      "type": "function"
    },
    {
      "inputs": [],
      "name": "payRegistrationFee",
      "outputs": [],
      "stateMutability": "nonpayable",
      "type": "function"
    },
    {
      "inputs": [
        {
          "internalType": "address",
          "name": "_user",
          "type": "address"
        }
      ],
      "name": "pendingDelegatorRewards",
      "outputs": [
        {
          "internalType": "uint256",
          "name": "",
          "type": "uint256"
        }
      ],
      "stateMutability": "view",
      "type": "function"
    },
    {
      "inputs": [
        {
          "internalType": "address",
          "name": "_validatorAddress",
          "type": "address"
        }
      ],
      "name": "registerValidator",
      "outputs": [],
      "stateMutability": "nonpayable",
      "type": "function"
    },
    {
      "inputs": [],
      "name": "renounceOwnership",
      "outputs": [],
      "stateMutability": "nonpayable",
      "type": "function"
    },
    {
      "inputs": [],
      "name": "rewardManagerAddress",
      "outputs": [
        {
          "internalType": "address",
          "name": "",
          "type": "address"
        }
      ],
      "stateMutability": "view",
      "type": "function"
    },
    {
      "inputs": [
        {
          "internalType": "address",
          "name": "_manager",
          "type": "address"
        }
      ],
      "name": "setRewardManager",
      "outputs": [],
      "stateMutability": "nonpayable",
      "type": "function"
    },
    {
      "inputs": [],
      "name": "totalNetworkPStake",
      "outputs": [
        {
          "internalType": "uint256",
          "name": "",
          "type": "uint256"
        }
      ],
      "stateMutability": "view",
      "type": "function"
    },
    {
      "inputs": [
        {
          "internalType": "address",
          "name": "newOwner",
          "type": "address"
        }
      ],
      "name": "transferOwnership",
      "outputs": [],
      "stateMutability": "nonpayable",
      "type": "function"
    },
    {
      "inputs": [
        {
          "internalType": "uint256",
          "name": "_delegationIndex",
          "type": "uint256"
        }
      ],
      "name": "unstake",
      "outputs": [],
      "stateMutability": "nonpayable",
      "type": "function"
    },
    {
      "inputs": [
        {
          "internalType": "address",
          "name": "",
          "type": "address"
        },
        {
          "internalType": "uint256",
          "name": "",
          "type": "uint256"
        }
      ],
      "name": "userDelegations",
      "outputs": [
        {
          "internalType": "uint256",
          "name": "amount",
          "type": "uint256"
        },
        {
          "internalType": "uint256",
          "name": "unlockTime",
          "type": "uint256"
        },
        {
          "internalType": "uint256",
          "name": "lockDuration",
          "type": "uint256"
        },
        {
          "internalType": "address",
          "name": "validator",
          "type": "address"
        }
      ],
      "stateMutability": "view",
      "type": "function"
    },
    {
      "inputs": [
        {
          "internalType": "address",
          "name": "",
          "type": "address"
        }
      ],
      "name": "userTotalPStake",
      "outputs": [
        {
          "internalType": "uint256",
          "name": "",
          "type": "uint256"
        }
      ],
      "stateMutability": "view",
      "type": "function"
    },
    {
      "inputs": [
        {
          "internalType": "address",
          "name": "",
          "type": "address"
        }
      ],
      "name": "validatorRewardDebt",
      "outputs": [
        {
          "internalType": "uint256",
          "name": "",
          "type": "uint256"
        }
      ],
      "stateMutability": "view",
      "type": "function"
    },
    {
      "inputs": [
        {
          "internalType": "address",
          "name": "",
          "type": "address"
        }
      ],
      "name": "validators",
      "outputs": [
        {
          "internalType": "bool",
          "name": "isRegistered",
          "type": "bool"
        },
        {
          "internalType": "uint256",
          "name": "selfStakeAmount",
          "type": "uint256"
        },
        {
          "internalType": "uint256",
          "name": "selfStakeUnlockTime",
          "type": "uint256"
        },
        {
          "internalType": "uint256",
          "name": "totalPStake",
          "type": "uint256"
        },
        {
          "internalType": "uint256",
          "name": "totalDelegatedAmount",
          "type": "uint256"
        }
      ],
      "stateMutability": "view",
      "type": "function"
    },
    {
      "inputs": [
        {
          "internalType": "uint256",
          "name": "",
          "type": "uint256"
        }
      ],
      "name": "validatorsArray",
      "outputs": [
        {
          "internalType": "address",
          "name": "",
          "type": "address"
        }
      ],
      "stateMutability": "view",
      "type": "function"
    }
  ],
  "bytecode": "0x60c03461022557601f61289738819003918201601f19168301916001600160401b0383118484101761022a578084926060946040528339810103126102255761004781610240565b9061005460208201610240565b906001600160a01b039061006a90604001610240565b1691821561020f57600080546001600160a01b031981168517825560405194916001600160a01b03909116907f8be0079c531659141344cd1fd0a4f28419497f9722a3daafe3b4186f6b6457e09080a3600180556001600160a01b03169182156101c157506001600160a01b03169081156101685760805260a052604051612642908161025582396080518181816106150152818161080201528181610f2901528181611535015281816117c9015281816118fd01528181611ad20152818161209c015281816122b1015261249e015260a05181818161073701528181610db90152818161149201528181611737015281816121b301526123f30152f35b60405162461bcd60e51b815260206004820152602b60248201527f444d3a2045636f73797374656d4d616e6167657220616464726573732063616e60448201526a6e6f74206265207a65726f60a81b6064820152608490fd5b62461bcd60e51b815260206004820152602360248201527f444d3a20424b43546f6b656e20616464726573732063616e6e6f74206265207a60448201526265726f60e81b6064820152608490fd5b631e4fbdf760e01b600052600060045260246000fd5b600080fd5b634e487b7160e01b600052604160045260246000fd5b51906001600160a01b03821682036102255756fe6080604052600436101561001257600080fd5b60003560e01c80630185921e14611a34578063031fadbd146119f257806308abda72146119cf578063153ee5541461192c5780632402ff97146118e75780632432c0f1146116eb5780632e17de781461136057806332cb6b0c1461133a5780633f8604f514610d1c5780634ad68f8314610cff5780634f1bfc9e14610ce0578063570e30e114610ca157806358f01c7914610c83578063715018a614610c2a57806378b4330f14610c0c5780637b70038914610bee5780637c81ff5614610bc85780637eda420614610bac57806385ef5c4a14610b8657806389ebc31e14610b075780638da5cb5b14610ade5780639946456614610abc5780639b75b9bf14610a9d5780639fca516914610766578063af6725b914610721578063bdd071fb146105c5578063c684e0e11461058b578063c99615b014610551578063d6f6c24814610411578063d7c1bf59146103ee578063dfebfdea146103c5578063f1f4dea0146103a7578063f2fde38b1461031e578063f3513a3714610252578063f6d41cd3146102185763fa52c7d8146101a857600080fd5b34610213576020366003190112610213576001600160a01b036101c9611df9565b16600052600460205260a0604060002060ff815416906001810154906002810154600460038301549201549260405194151585526020850152604084015260608301526080820152f35b600080fd5b34610213576020366003190112610213576001600160a01b03610239611df9565b16600052600c6020526020604060002054604051908152f35b34610213576000366003190112610213576040518060206006549283815201809260066000527ff652222313e28459528d920b65115c16c04f3efc82aaedc97be59f3f377c0d3f9060005b8181106102ff57505050816102b3910382611e9b565b6040519182916020830190602084525180915260408301919060005b8181106102dd575050500390f35b82516001600160a01b03168452859450602093840193909201916001016102cf565b82546001600160a01b031684526020909301926001928301920161029d565b3461021357602036600319011261021357610337611df9565b61033f6123ae565b6001600160a01b0316801561039157600080546001600160a01b03198116831782556001600160a01b0316907f8be0079c531659141344cd1fd0a4f28419497f9722a3daafe3b4186f6b6457e09080a3005b631e4fbdf760e01b600052600060045260246000fd5b34610213576000366003190112610213576020600a54604051908152f35b34610213576000366003190112610213576002546040516001600160a01b039091168152602090f35b34610213576000366003190112610213576020610409612087565b604051908152f35b34610213576020366003190112610213576001600160a01b03610432611df9565b166000526005602052604060002080549067ffffffffffffffff821161053b576040519161046660208260051b0184611e9b565b80835260208301809260005260206000206000915b8383106104f35784866040519182916020830190602084525180915260408301919060005b8181106104ae575050500390f35b82518051855260208181015181870152604080830151908701526060918201516001600160a01b031691860191909152869550608090940193909201916001016104a0565b6004602060019260405161050681611e7f565b85548152848601548382015260028601546040820152848060a01b03600387015416606082015281520192019201919061047b565b634e487b7160e01b600052604160045260246000fd5b34610213576020366003190112610213576001600160a01b03610572611df9565b16600052600b6020526020604060002054604051908152f35b34610213576020366003190112610213576001600160a01b036105ac611df9565b1660005260086020526020604060002054604051908152f35b34610213576105d336611e40565b906105dc61213d565b81156106e757506040516323b872dd60e01b81523360048201523060248201526044810182905260208160648160006001600160a01b037f0000000000000000000000000000000000000000000000000000000000000000165af19081156106db576000916106ac575b501561065b576106559061256c565b60018055005b60405162461bcd60e51b8152602060048201526024808201527f444d3a204661696c656420746f2070756c6c2064656c656761746f72207265776044820152636172647360e01b6064820152608490fd5b6106ce915060203d6020116106d4575b6106c68183611e9b565b810190611ebd565b82610646565b503d6106bc565b6040513d6000823e3d90fd5b9050604051908152600060208201527f6e8a19c7bcac2f8ca75d80a333a2cfffd851001c55ba805c58cc66c70d92bd7460403392a2610655565b34610213576000366003190112610213576040517f00000000000000000000000000000000000000000000000000000000000000006001600160a01b03168152602090f35b346102135760203660031901126102135761077f611df9565b61078761213d565b61078f612087565b6001600160a01b039091169033829003610a585733600052600360205260ff6040600020541615610a075781600052600460205260ff604060002054166109c3576040516323b872dd60e01b81523360048201523060248201526044810182905260208160648160006001600160a01b037f0000000000000000000000000000000000000000000000000000000000000000165af19081156106db576000916109a4575b501561095f576309660180420180421161094957610721670de0b6b3a76400008304818102918183041490151715610949576040519160a083019183831067ffffffffffffffff84111761053b576004926040526001845260208401918583526040850190815260608501918252608085019260008452876000528460205260406000209551151560ff8019885416911617865551600186015551600285015551600384015551910155600654600160401b81101561053b577fb4a7f5c563a0e35593d156394ed681bdc9c39467d7d722749d23862c2e4b712c9161092082600160209401600655611e0f565b81546001600160a01b0360039290921b91821b19169086901b179055604051908152a260018055005b634e487b7160e01b600052601160045260246000fd5b60405162461bcd60e51b815260206004820152601960248201527f444d3a205374616b65207472616e73666572206661696c6564000000000000006044820152606490fd5b6109bd915060203d6020116106d4576106c68183611e9b565b83610833565b606460405162461bcd60e51b815260206004820152602060248201527f444d3a2056616c696461746f7220616c726561647920726567697374657265646044820152fd5b60405162461bcd60e51b815260206004820152602360248201527f444d3a204d7573742070617920726567697374726174696f6e206665652066696044820152621c9cdd60ea1b6064820152608490fd5b60405162461bcd60e51b815260206004820152601a60248201527f444d3a2043616e206f6e6c792072656769737465722073656c660000000000006044820152606490fd5b3461021357600036600319011261021357602060405163096601808152f35b3461021357600036600319011261021357610ad561213d565b6106553361215f565b34610213576000366003190112610213576000546040516001600160a01b039091168152602090f35b3461021357604036600319011261021357610b20611df9565b6001600160a01b031660009081526005602052604090208054602435919082101561021357608091610b5191611e63565b50805490600181015490600281015490600360018060a01b039101541691604051938452602084015260408301526060820152f35b346102135760003660031901126102135760206040516a84595161401484a00000008152f35b3461021357600036600319011261021357602060405160038152f35b346102135760003660031901126102135760206040516a21165458500521280000008152f35b34610213576000366003190112610213576020600954604051908152f35b34610213576000366003190112610213576020604051620151808152f35b3461021357600036600319011261021357610c436123ae565b600080546001600160a01b0319811682556001600160a01b03167f8be0079c531659141344cd1fd0a4f28419497f9722a3daafe3b4186f6b6457e08280a3005b34610213576000366003190112610213576020600754604051908152f35b34610213576020366003190112610213576001600160a01b03610cc2611df9565b166000526003602052602060ff604060002054166040519015158152f35b346102135760003660031901126102135760206040516312cc03008152f35b346102135760003660031901126102135760206040516127748152f35b3461021357610d2a36611e40565b610d3261213d565b610d3b3361215f565b336000526005602052604060002090610d5682548410611fac565b610d608383611e63565b509060018201544210156112cf578154604051631da3ddcd60e31b8152602060048201819052601a60248301527f464f5243455f554e5354414b455f50454e414c54595f424950530000000000006044830152919290917f00000000000000000000000000000000000000000000000000000000000000006001600160a01b03169083606481845afa9283156106db5760009361129b575b5060405163060837d160e21b815260009290602081600481865afa908115611290578491611271575b508115158061125f575b6110f3575b505050808211156110e457610e4b610e519161271093611e56565b83611ee2565b0491610e5d8383611e56565b916003610e7d62015180600285015404670de0b6b3a76400008404611ee2565b92610e8a84600754611e56565b6007550160018060a01b0381541660005260046020526003604060002001610eb3848254611e56565b905560018060a01b039054166000526004602052610eda6004604060002001918254611e56565b9055336000526008602052610ef56040600020918254611e56565b9055816110d6575b60405163a9059cbb60e01b81523360048201526024810182905260208160448160006001600160a01b037f0000000000000000000000000000000000000000000000000000000000000000165af19081156106db576000916110b7575b50156110665782546001811180611051575b610ffb575b50610f9c7f204fccf0d92ed8d48f204adb39b2e81e92bad0dedb93f5716ca9478cfb57de009361203d565b336000526008602052670de0b6b3a7640000610fc0604060002054600a5490611ee2565b0433600052600c602052604060002055610ff26040519283923396846040919493926060820195825260208201520152565b0390a260018055005b6000198101908111610949578361104a611039610f9c937f204fccf0d92ed8d48f204adb39b2e81e92bad0dedb93f5716ca9478cfb57de0097611e63565b506110448884611e63565b90611fec565b9350610f71565b50600019810181811161094957851415610f6c565b60405162461bcd60e51b815260206004820152602360248201527f444d3a204661696c656420746f2072657475726e20746f6b656e7320746f207560448201526239b2b960e91b6064820152608490fd5b6110d0915060203d6020116106d4576106c68183611e9b565b85610f5a565b6110df826123d7565b610efd565b5050612710610e516000610e4b565b6040516331a9108f60e11b8152600481018390526001600160a01b03919091169190602081602481865afa85918161122e575b50611132575b50610e30565b6001600160a01b03163314611148575b8061112c565b60209060246040518094819363070922e560e51b835260048301525afa80156112235783906111ec575b60209150602460405180948193634af0f1dd60e11b835260048301525afa9182156111e05780926111a8575b5050868080611142565b9091506020823d6020116111d8575b816111c460209383611e9b565b810103126111d5575051868061119e565b80fd5b3d91506111b7565b604051903d90823e3d90fd5b506020813d60201161121b575b8161120660209383611e9b565b810103126112175760209051611172565b8280fd5b3d91506111f9565b6040513d85823e3d90fd5b61125191925060203d602011611258575b6112498183611e9b565b810190611f41565b908b611126565b503d61123f565b506001600160a01b0381161515610e2b565b61128a915060203d602011611258576112498183611e9b565b89610e21565b6040513d86823e3d90fd5b90926020823d6020116112c7575b816112b660209383611e9b565b810103126111d55750519187610df8565b3d91506112a9565b60405162461bcd60e51b815260206004820152603760248201527f444d3a2044656c65676174696f6e20697320616c726561647920756e6c6f636b60448201527f65642c2075736520726567756c617220756e7374616b650000000000000000006064820152608490fd5b346102135760003660031901126102135760206040516aa56fa5b99019a5c80000008152f35b346102135760203660031901126102135760043561137c61213d565b6113853361215f565b336000526005602052604060002061139f81548310611fac565b6113a98282611e63565b50600181015442106116a6576113d48154670de0b6b3a7640000620151806002850154049104611ee2565b6113e081600754611e56565b6007556003820160018060a01b038154166000526004602052600360406000200161140c838254611e56565b905582549060018060a01b0390541660005260046020526114366004604060002001918254611e56565b90553360005260086020526114516040600020918254611e56565b9055604051631da3ddcd60e31b8152602060048201819052601060248301526f554e5354414b455f4645455f4249505360801b6044830152909190826064817f00000000000000000000000000000000000000000000000000000000000000006001600160a01b03165afa9182156106db57600092611670575b506127106114de6114e692549384611ee2565b048092611e56565b9181611662575b805490600182118061164d575b611621575b611509915061203d565b60405163a9059cbb60e01b81523360048201526024810183905260208160448160006001600160a01b037f0000000000000000000000000000000000000000000000000000000000000000165af19081156106db57600091611602575b50156115b2577f204fccf0d92ed8d48f204adb39b2e81e92bad0dedb93f5716ca9478cfb57de0091336000526008602052670de0b6b3a7640000610fc0604060002054600a5490611ee2565b60405162461bcd60e51b815260206004820152602260248201527f444d3a204661696c656420746f207472616e7366657220746f6b656e73206261604482015261636b60f01b6064820152608490fd5b61161b915060203d6020116106d4576106c68183611e9b565b84611566565b60001982019182116109495761164861163d6115099383611e63565b506110448784611e63565b6114ff565b506000198201828111610949578514156114fa565b61166b826123d7565b6114ed565b9091506020813d60201161169e575b8161168c60209383611e9b565b810103126102135751906127106114cb565b3d915061167f565b60405162461bcd60e51b815260206004820152601860248201527f444d3a204c6f636b20706572696f64206e6f74206f76657200000000000000006044820152606490fd5b346102135760003660031901126102135761170461213d565b61170c612087565b33600052600360205260ff604060002054166118ab57604051633800918160e21b81526020816004817f00000000000000000000000000000000000000000000000000000000000000006001600160a01b03165afa9182156106db576117c39260209260009161188e575b5061178c6001600160a01b0382161515611f60565b6040516323b872dd60e01b81523360048201526001600160a01b039091166024820152604481019190915291829081906064820190565b038160007f00000000000000000000000000000000000000000000000000000000000000006001600160a01b03165af19081156106db5760009161186f575b501561182a573360005260036020526040600020600160ff1982541617905560018055600080f35b60405162461bcd60e51b815260206004820152601760248201527f444d3a20466565207472616e73666572206661696c65640000000000000000006044820152606490fd5b611888915060203d6020116106d4576106c68183611e9b565b81611802565b6118a59150833d8511611258576112498183611e9b565b84611777565b60405162461bcd60e51b815260206004820152601460248201527311134e8811995948185b1c9958591e481c185a5960621b6044820152606490fd5b34610213576000366003190112610213576040517f00000000000000000000000000000000000000000000000000000000000000006001600160a01b03168152602090f35b3461021357602036600319011261021357611945611df9565b61194d6123ae565b6001600160a01b03168015611979576bffffffffffffffffffffffff60a01b6002541617600255600080f35b60405162461bcd60e51b815260206004820152602860248201527f444d3a205265776172644d616e616765722063616e6e6f74206265207a65726f604482015267206164647265737360c01b6064820152608490fd5b346102135760203660031901126102135760206104096119ed611df9565b611ef5565b346102135760203660031901126102135760043560065481101561021357611a1b602091611e0f565b905460405160039290921b1c6001600160a01b03168152f35b3461021357606036600319011261021357611a4d611df9565b60243560443591611a5c61213d565b611a653361215f565b6001600160a01b031660008181526004602052604090205490929060ff1615611dbc578115611d82576201518081101580611d74575b15611d2f576040516323b872dd60e01b81523360048201523060248201526044810183905260208160648160006001600160a01b037f0000000000000000000000000000000000000000000000000000000000000000165af19081156106db57600091611d10575b5015611ccb57336000526005602052604060002090611b228142611ed5565b9060405192611b3084611e7f565b84845260208401928352604084019382855260608101918783528054600160401b81101561053b57611b6791600182018155611e63565b929092611cb557905182559251600182015592516002840155905160039290920180546001600160a01b0319166001600160a01b039390931692909217909155611bc190620151809004670de0b6b3a76400008304611ee2565b611bcd81600754611ed5565b6007558260005260046020526003604060002001611bec828254611ed5565b90558260005260046020526004604060002001611c0a838254611ed5565b9055336000526008602052611c256040600020918254611ed5565b9055336000526008602052670de0b6b3a7640000611c4b604060002054600a5490611ee2565b0433600052600c602052604060002055336000526005602052604060002054906000198201918211610949576040519182526020820152600060408201527fc4ad67bad2c1f682946a406d840f1b273f5cd5a53fcc1a03d078d92bfa2e07d060603392a360018055005b634e487b7160e01b600052600060045260246000fd5b60405162461bcd60e51b815260206004820152601d60248201527f444d3a204661696c656420746f2064656c656761746520746f6b656e730000006044820152606490fd5b611d29915060203d6020116106d4576106c68183611e9b565b84611b03565b60405162461bcd60e51b815260206004820152601960248201527f444d3a20496e76616c6964206c6f636b206475726174696f6e000000000000006044820152606490fd5b506312cc0300811115611a9b565b60405162461bcd60e51b815260206004820152601260248201527111134e88125b9d985b1a5908185b5bdd5b9d60721b6044820152606490fd5b60405162461bcd60e51b815260206004820152601560248201527422269d1024b73b30b634b2103b30b634b230ba37b960591b6044820152606490fd5b600435906001600160a01b038216820361021357565b600654811015611e2a57600660005260206000200190600090565b634e487b7160e01b600052603260045260246000fd5b6040906003190112610213576004359060243590565b9190820391821161094957565b8054821015611e2a5760005260206000209060021b0190600090565b6080810190811067ffffffffffffffff82111761053b57604052565b90601f8019910116810190811067ffffffffffffffff82111761053b57604052565b90816020910312610213575180151581036102135790565b9190820180921161094957565b8181029291811591840414171561094957565b6001600160a01b0316600081815260086020526040902054600a54611f3e9291670de0b6b3a764000091611f2891611ee2565b0490600052600c60205260406000205490611e56565b90565b9081602091031261021357516001600160a01b03811681036102135790565b15611f6757565b60405162461bcd60e51b815260206004820152601b60248201527f444d3a205472656173757279206e6f742073657420696e2048756200000000006044820152606490fd5b15611fb357565b60405162461bcd60e51b81526020600482015260116024820152700889a744092dcecc2d8d2c840d2dcc8caf607b1b6044820152606490fd5b9190611cb557808203611ffd575050565b805482556001808201549083015560028082015490830155600390810154910180546001600160a01b0319166001600160a01b0392909216919091179055565b805480156120715760001901906120548282611e63565b611cb5576003816000809355826001820155826002820155015555565b634e487b7160e01b600052603160045260246000fd5b6040516318160ddd60e01b81526020816004817f00000000000000000000000000000000000000000000000000000000000000006001600160a01b03165afa9081156106db5760009161210b575b50600381029080820460031490151715610949576127109004612774810290808204612774149015171561094957612710900490565b906020823d602011612135575b8161212560209383611e9b565b810103126111d5575051386120d5565b3d9150612118565b60026001541461214e576002600155565b633ee5aeb560e01b60005260046000fd5b61216881611ef5565b9081612172575050565b604051631da3ddcd60e31b81526020600482018190526015602483015274434c41494d5f5245574152445f4645455f4249505360581b6044830152816064817f00000000000000000000000000000000000000000000000000000000000000006001600160a01b03165afa9081156106db5760009161237a575b506127106121fd6122059285611ee2565b048093611e56565b9060018060a01b03811692836000526008602052670de0b6b3a7640000612234604060002054600a5490611ee2565b0484600052600c6020526040600020558061236b575b508161227f575b5060207f57e3f5364720537268c2fbdb1935293ba7690a5f3d206a64097c2f8f54dc5cae91604051908152a2565b60405163a9059cbb60e01b81526001600160a01b039091166004820152602481018290526020818060448101038160007f00000000000000000000000000000000000000000000000000000000000000006001600160a01b03165af19081156106db5760009161234c575b50156122f65738612251565b60405162461bcd60e51b815260206004820152602860248201527f444d3a204661696c656420746f207472616e736665722064656c656761746f72604482015267207265776172647360c01b6064820152608490fd5b612365915060203d6020116106d4576106c68183611e9b565b386122ea565b612374906123d7565b3861224a565b90506020813d6020116123a6575b8161239560209383611e9b565b8101031261021357516127106121ec565b3d9150612388565b6000546001600160a01b031633036123c257565b63118cdaa760e01b6000523360045260246000fd5b801561256957604051633800918160e21b8152906020826004817f00000000000000000000000000000000000000000000000000000000000000006001600160a01b03165afa9182156106db57600092612548575b506124416001600160a01b0383161515611f60565b61244f8160011c8092611e56565b918161246b575b5050806124605750565b6124699061256c565b565b60405163a9059cbb60e01b81526001600160a01b03909116600482015260248101919091526020818060448101038160007f00000000000000000000000000000000000000000000000000000000000000006001600160a01b03165af19081156106db57600091612529575b50156124e4573880612456565b60405162461bcd60e51b815260206004820152601a60248201527f444d3a2046656520746f205472656173757279206661696c65640000000000006044820152606490fd5b612542915060203d6020116106d4576106c68183611e9b565b386124d7565b61256291925060203d602011611258576112498183611e9b565b903861242c565b50565b8015801580612601575b61257e575050565b670de0b6b3a7640000820290828204670de0b6b3a76400001417156109495760075480156125eb576125b39104600a54611ed5565b600a55604051906000825260208201527f6e8a19c7bcac2f8ca75d80a333a2cfffd851001c55ba805c58cc66c70d92bd7460403092a2565b634e487b7160e01b600052601260045260246000fd5b50600754151561257656fea26469706673582212200bd8e4e303c5cc261142ff4dcbef0b82bc033d01507aff74023d943ad98047af64736f6c634300081c0033",
  "linkReferences": {},
  "deployedLinkReferences": {}
}